:100000000C942A000C9447000C9447000C94470071
:100010000C9447000C9447000C9447000C94470044
:100020000C9447000C9447000C9447000C94470034
:100030000C9447000C9447000C9447000C94470024
:100040000C9447000C9447000C9447000C94470014
:100050000C94470011241FBECFE5D4E0DEBFCDBF16
:1000600011E0A0E6B0E0ECE8FEE302C005900D92DE
:10007000A637B107D9F712E0A6E7B1E001C01D929B
:10008000AC30B107E1F70E941F1E0C94441F0C9482
:100090000000EF92FF920F93DF93CF93CDB7DEB7BF
:1000A00060970FB6F894DEBF0FBECDBFA82F002318
:1000B00009F461C07E010894E11CF11C88E0F7019D
:1000C00011928A95E9F729833A834B835C836D8388
:1000D0007E83AF83988780E2801BE82FFF27E7FDB0
:1000E000F09549815A816B817C81181684F01986BC
:1000F0001A861B861C86882799278E1B9F0B04C097
:10010000440F551F661F771F8A95D2F728C0202FEE
:10011000332727FD3095DB01CA01022E04C0880F6A
:10012000991FAA1FBB1F0A94D2F789879A87AB87AA
:10013000BC8704C07695679557954795EA95D2F7A1
:100140008D819E81AF81B88504C0880F991FAA1F39
:10015000BB1F2A95D2F7482B592B6A2B7B2B4D8737
:100160005E876F87788B29853A854B855C856D85A1
:100170007E85AF8598898A2F60960FB6F894DEBF8A
:100180000FBECDBFCF91DF910F91FF90EF900895FB
:10019000EF92FF920F931F937B018C0120E030E0E0
:1001A00040E05FE40E94A40488238CF0C801B701FA
:1001B00020E030E040E05FE40E941C030E94620502
:1001C0009B01AC01205030404040504806C0C8015F
:1001D000B7010E9462059B01AC01B901CA011F91E0
:1001E0000F91FF90EF900895A2E0B0E0EAEFF0E009
:1001F0000C94C81E122FB32EA42E952E862E372EA9
:10020000282E9A83C22ED32EE42EF52EA701960116
:1002100060E070E080E090E02117A1F43B1591F4DC
:100220004A1581F4591571F4681561F4731551F488
:10023000821541F4AA819A1729F4C701B6010E94D8
:10024000B605AAC0212F3B2D4A2D592D682D732D9F
:10025000822D9A8100E20E942F06C901DA018030C6
:10026000E0E09E07E1E0AE07E0E0BE0780F48F3FEC
:100270009105A105B10531F028F028E030E040E01B
:1002800050E016C020E030E040E050E011C0803087
:10029000F0E09F07F0E0AF07F1E0BF0728F028E1AA
:1002A00030E040E050E004C020E130E040E050E0C9
:1002B000022E04C0B695A795979587950A94D2F714
:1002C000FC01EA58FF4F808129013A01480E511C78
:1002D000611C711C4982212F3B2D4A2D592D682DFF
:1002E000732D822D9A81042D0E942F06C901DA01F7
:1002F0004C015D0180E290E08419950904C0CC0CAA
:10030000DD1CEE1CFF1C8A95D2F7C114D104E10458
:10031000F10441F081E090E0A0E0B0E0882A992A61
:10032000AA2ABB2A90E2491651046104710459F4C7
:100330000F2EF0E0EF2EF0E0FF2EF0E80F2FFFE49D
:100340001F2FF02D21C0AFE14A1651046104710442
:1003500059F40F2EF0E0EF2EF0E0FF2EF0E00F2F1B
:10036000FFE41F2FF02D10C061E070E080E090E00E
:10037000098004C0660F771F881F991F0A94D2F75F
:100380000E9404057B018C01C501B4010E94B605E1
:10039000A80197010E947A032296E2E10C94E41EE0
:1003A000A0E0B0E0E6EDF1E00C94C81EDC012B010A
:1003B000FA019C91923008F439C1EB0188818230B6
:1003C00008F433C1943069F4843009F02FC11196D8
:1003D0009C9111978981981709F428C1AEE6B0E085
:1003E00025C1843009F421C18230A9F4923009F08A
:1003F0001DC19A01AD0188E0EA010990AE01E90151
:1004000009929E018150C1F7E201898111969C9168
:100410008923818308C1923009F407C112962D9077
:100420003C901397EB018A819B811496AD90BD900F
:10043000CD90DC901797EC80FD800E811F8191019B
:10044000281B390BB90137FF04C066277727621BC9
:10045000730B603271050CF061C0121613066CF557
:1004600037014801062E04C09694879477946794C8
:100470000A94D2F721E030E040E050E004C0220FBF
:10048000331F441F551F6A95D2F72150304040401A
:1004900050402E213F214023512321153105410594
:1004A000510521F021E030E040E050E079018A017F
:1004B000E628F728082919293CC0232BD1F1260E5C
:1004C000371E35014601062E04C096948794779412
:1004D00067940A94D2F721E030E040E050E004C095
:1004E000220F331F441F551F6A95D2F72150304009
:1004F000404050402A213B214C215D2121153105EE
:100500004105510521F021E030E040E050E0590183
:100510006A01A628B728C828D9280BC082159305D8
:100520002CF01C01AA24BB24650103C0EE24FF2487
:10053000870111969C91D20111968C91981709F41C
:1005400045C0992339F0A80197012A193B094C09A4
:100550005D0906C0A60195012E193F09400B510BFC
:1005600057FD08C01182338222822483358346835B
:1005700057831DC081E08183338222828827992797
:10058000DC01821B930BA40BB50B84839583A6839C
:10059000B7830DC0220F331F441F551F248335839B
:1005A0004683578382819381019793838283248139
:1005B000358146815781DA01C9010197A109B10945
:1005C0008F5F9F4FAF4FBF4328F30BC091833382A0
:1005D0002282EA0CFB1C0C1D1D1DE482F5820683A1
:1005E000178383E08083248135814681578157FFBB
:1005F0001AC0C901AA2797FDA095BA2F81709070E3
:10060000A070B0705695479537952795822B932B00
:10061000A42BB52B84839583A683B7838281938192
:10062000019693838283DF0101C0D201CD01CDB752
:10063000DEB7E2E10C94E41EA0E2B0E0E2E2F3E017
:100640000C94D41E69837A838B839C832D833E8391
:100650004F835887E9E0EE2EF12CEC0EFD1ECE0103
:100660000196B7010E94D2078E010F5E1F4FCE0187
:100670000596B8010E94D2078A8991E089278A8B62
:10068000C701B801AE01475E5F4F0E94D0010E94D2
:10069000FD06A096E6E00C94F01EA0E2B0E0E3E5D3
:1006A000F3E00C94D41E69837A838B839C832D831F
:1006B0003E834F835887F9E0EF2EF12CEC0EFD1EA0
:1006C000CE010196B7010E94D2078E010F5E1F4F27
:1006D000CE010596B8010E94D207C701B801AE014C
:1006E000475E5F4F0E94D0010E94FD06A096E6E0A3
:1006F0000C94F01EA0E2B0E0E0E8F3E00C94C81E19
:1007000069837A838B839C832D833E834F835887B1
:10071000CE010196BE01675F7F4F0E94D207CE01D6
:100720000596BE016F5E7F4F0E94D2079985923079
:1007300088F089898230C8F0943019F4823051F4FD
:1007400004C0843029F4923081F48EE690E0C6C073
:10075000923049F420E09A858A89981321E02A870B
:10076000CE010996BBC0823049F420E09A858A897F
:10077000981321E02A8BCE014196B0C02D843E848F
:100780004F8458886D887E888F88988CEE24FF244B
:100790008701AA24BB24650140E050E060E070E0DE
:1007A000E0E0F0E0C10181709070892BE9F0E60C87
:1007B000F71C081D191D9A01AB012A0D3B1D4C1D8C
:1007C0005D1D80E090E0A0E0B0E0E614F7040805CD
:1007D000190520F481E090E0A0E0B0E0BA01A901A1
:1007E000480F591F6A1F7B1FAA0CBB1CCC1CDD1CA9
:1007F00097FE08C081E090E0A0E0B0E0A82AB92A06
:10080000CA2ADB2A3196E032F10549F0660C771CE2
:10081000881C991C5694479437942794C3CFFA8523
:10082000EA892B893C898B859C85280F391F2E5F8F
:100830003F4F17C0CA0181709070892B61F01695E7
:100840000795F794E79480E090E0A0E0B0E8E82A0C
:10085000F92A0A2B1B2B76956795579547952F5F9D
:100860003F4F77FDE7CF0CC0440F551F661F771F22
:1008700017FD4160EE0CFF1C001F111F215030407E
:10088000403090E0590790E0690790E4790760F301
:100890002B8F3C8FDB01CA018F779070A070B070F6
:1008A00080349105A105B10561F447FD0AC0E1144A
:1008B000F1040105110529F0405C5F4F6F4F7F4F38
:1008C00040781A8EFE1711F081E08A8F4D8F5E8F6F
:1008D0006F8F78A383E0898FCE0149960E94FD0631
:1008E000A096E2E10C94E41EA8E1B0E0EAE7F4E0AF
:1008F0000C94D41E69837A838B839C832D833E83DF
:100900004F83588789E0E82EF12CEC0EFD1ECE01B6
:100910000196B7010E94D2078E010F5E1F4FCE01D4
:100920000596B8010E94D2078985823040F08989F6
:10093000823028F0C701B8010E944A0801C08FEF39
:100940006896E6E00C94F01EA8E1B0E0EAEAF4E074
:100950000C94D41E69837A838B839C832D833E837E
:100960004F83588789E0E82EF12CEC0EFD1ECE0156
:100970000196B7010E94D2078E010F5E1F4FCE0174
:100980000596B8010E94D2078985823040F0898996
:10099000823028F0C701B8010E944A0801C08FEFD9
:1009A0006896E6E00C94F01EA8E1B0E0EAEDF4E011
:1009B0000C94D41E69837A838B839C832D833E831E
:1009C0004F83588789E0E82EF12CEC0EFD1ECE01F6
:1009D0000196B7010E94D2078E010F5E1F4FCE0114
:1009E0000596B8010E94D2078985823040F0898936
:1009F000823028F0C701B8010E944A0801C081E096
:100A00006896E6E00C94F01EA8E0B0E0EAE0F5E0BD
:100A10000C94D11E9B01AC0183E08983DA01C901EA
:100A20008827B7FD83959927AA27BB27B82E2115BC
:100A300031054105510519F482E089833AC08823C4
:100A4000A9F0203080E0380780E0480780E85807A8
:100A500029F460E070E080E09FEC30C0EE24FF24D9
:100A60008701E21AF30A040B150B02C079018A010F
:100A70008EE1C82ED12CDC82CB82ED82FE820F83E8
:100A80001887C801B7010E94AE060197181619060B
:100A900084F4082E04C0EE0CFF1C001F111F0A94E2
:100AA000D2F7ED82FE820F831887C81AD90ADC823A
:100AB000CB82BA82CE0101960E94FD062896E9E01B
:100AC0000C94ED1EACE0B0E0E8E6F5E00C94D81E26
:100AD00069837A838B839C83CE010196BE016B5F11
:100AE0007F4F0E94D2078D81823061F1823050F1B8
:100AF000843021F48E81882351F12EC02F813885D6
:100B000037FD20C06E812F3131051CF06623F9F0CE
:100B100023C08EE190E0821B930B29853A854B859B
:100B20005C8504C056954795379527958A95D2F7E9
:100B30006623B1F050954095309521953F4F4F4F2A
:100B40005F4F0EC020E030E040E050E009C02FEFE2
:100B50003FEF4FEF5FE704C020E030E040E050E8B7
:100B6000B901CA012C96E2E00C94F41EA8E0B0E0B2
:100B7000ECEBF5E00C94D01E7B018C016115710546
:100B80008105910519F482E0898360C083E089833F
:100B90008EE1C82ED12CDC82CB82ED82FE820F83C7
:100BA0001887C801B7010E94AE06FC013197F7FF14
:100BB0003BC0222733272E1B3F0B57016801022E13
:100BC00004C0D694C794B794A7940A94D2F740E08F
:100BD00050E060E070E081E090E0A0E0B0E004C0B0
:100BE000880F991FAA1FBB1F2A95D2F70197A10949
:100BF000B1098E219F21A023B1230097A105B10542
:100C000021F041E050E060E070E04A295B296C2966
:100C10007D294D835E836F8378878EE190E08E1B04
:100C20009F0B9C838B8312C0309781F00E2E04C0E3
:100C3000EE0CFF1C001F111F0A94D2F7ED82FE82FA
:100C40000F831887CE1ADF0ADC82CB821A82CE018C
:100C500001960E94FD062896EAE00C94EC1EEF92A5
:100C6000FF920F93DF93CF93CDB7DEB760970FB6A8
:100C7000F894DEBF0FBECDBFA82F002309F461C0DA
:100C80007E010894E11CF11C88E0F70111928A951D
:100C9000E9F729833A834B835C836D837E83AF833B
:100CA000988780E2801BE82FFF27E7FDF0954D81B4
:100CB0005E816F817885181684F01D861E861F86DA
:100CC000188A882799278E1B9F0B04C076956795F5
:100CD000579547958A95D2F728C0202F332727FDAF
:100CE0003095DB01CA01022E04C0B695A7959795F1
:100CF00087950A94D2F78D879E87AF87B88B04C0FB
:100D0000440F551F661F771FEA95D2F789819A8194
:100D1000AB81BC8104C0B695A795979587952A9518
:100D2000D2F7482B592B6A2B7B2B49875A876B8725
:100D30007C8729853A854B855C856D857E85AF8569
:100D400098898A2F60960FB6F894DEBF0FBECDBF8C
:100D5000CF91DF910F91FF90EF900895EF92FF9266
:100D60000F931F937B018C0180E0E81680E0F8066A
:100D700081E0080780E0180788F48FEFE816F10497
:100D80000105110531F028F088E090E0A0E0B0E026
:100D900017C080E090E0A0E0B0E012C080E0E8166C
:100DA00080E0F80680E0080781E0180728F088E175
:100DB00090E0A0E0B0E004C080E190E0A0E0B0E00E
:100DC00020E230E040E050E0281B390B4A0B5B0B7F
:100DD00004C016950795F794E7948A95D2F7F70122
:100DE000EA58FF4F8081281B310941095109C90187
:100DF0001F910F91FF90EF900895DF92EF92FF9275
:100E00000F931F93FC01E480F58006811781D18048
:100E10008081823048F480E090E0A0E1B0E0E82AF0
:100E2000F92A0A2B1B2BA5C0843009F49FC08230FD
:100E300021F4EE24FF24870105C0E114F10401052B
:100E4000110519F4E0E0F0E096C0628173819FEF34
:100E5000623879070CF05BC022E83FEF261B370BA6
:100E60002A3131052CF020E030E040E050E02AC08B
:100E7000B801A701022E04C076956795579547954E
:100E80000A94D2F781E090E0A0E0B0E004C0880FBF
:100E9000991FAA1FBB1F2A95D2F70197A109B10973
:100EA0008E219F21A023B1230097A105B10521F038
:100EB00081E090E0A0E0B0E09A01AB01282B392B53
:100EC0004A2B5B2BDA01C9018F779070A070B0704C
:100ED00080349105A105B10539F427FF09C0205CD4
:100EE0003F4F4F4F5F4F04C0215C3F4F4F4F5F4F0D
:100EF000E0E0F0E02030A0E03A07A0E04A07A0E4FC
:100F00005A0710F0E1E0F0E079018A0127C060386B
:100F1000710564F5FB01E158FF4FD801C7018F77D8
:100F20009070A070B07080349105A105B10539F4BE
:100F3000E7FE0DC080E490E0A0E0B0E004C08FE3E5
:100F400090E0A0E0B0E0E80EF91E0A1F1B1F17FF9B
:100F500005C016950795F794E794319687E01695A6
:100F60000795F794E7948A95D1F705C0EE24FF24FE
:100F70008701EFEFF0E06E2F679566276795902F5A
:100F80009F77D794DD24D7948E2F8695492F462BB3
:100F9000582F5D29B701CA011F910F91FF90EF9063
:100FA000DF900895FC01DB01408151812281622F95
:100FB0006F7770E0221F2227221F9381892F880FCD
:100FC000822B282F30E0991F9927991F11969C9307
:100FD000119721153105A9F54115510561057105D7
:100FE00011F482E037C082E89FEF13969C938E93B2
:100FF00012979A01AB0167E0220F331F441F551F60
:101000006A95D1F783E08C930DC0220F331F441FE4
:10101000551F12968D919C911397019713969C934F
:101020008E931297203080E0380780E0480780E4F4
:10103000580758F314962D933D934D935C9317974F
:1010400008952F3F310579F441155105610571056A
:1010500019F484E08C93089564FF03C081E08C93BD
:1010600012C01C9210C02F57304013963C932E9301
:10107000129783E08C9387E0440F551F661F771FFC
:101080008A95D1F7706414964D935D936D937C931C
:10109000179708951F93DC01FB019C91923008F48F
:1010A00047C08081823008F443C0943051F41196D7
:1010B0001C91843099F58181682F70E0611B710962
:1010C0003FC0843021F0923031F48230B9F1818117
:1010D000882389F12DC011961C9111978230F1F06F
:1010E00081811817D9F412962D913C911397828122
:1010F00093818217930794F028173907BCF0149650
:101100008D919D910D90BC91A02D248135814681BA
:101110005781281739074A075B0718F4112341F054
:101120000AC082179307A407B50740F4112319F0EA
:1011300061E070E005C06FEF7FEF02C060E070E03B
:10114000CB011F910895DF93CF9300D000D00F9271
:10115000CDB7DEB789836A834B838A81883008F0F4
:10116000D5C08981843008F0D1C08981282F30E032
:101170003D832C838C819D818130910509F443C08E
:101180002C813D81223031052CF48C819D8100978A
:1011900071F0BCC02C813D812230310509F45FC063
:1011A0008C819D818330910509F485C0AFC08B810E
:1011B0008130A1F4AAE3B0E0EAE3F0E08081482FB7
:1011C0008A81282F30E081E090E0022E02C0880F53
:1011D000991F0A94E2F7842B8C9398C0AAE3B0E09D
:1011E000EAE3F0E08081482F8A81282F30E081E017
:1011F00090E0022E02C0880F991F0A94E2F78095B2
:1012000084238C9383C08B818130A1F4A7E3B0E069
:10121000E7E3F0E08081482F8A81282F30E081E0E9
:1012200090E0022E02C0880F991F0A94E2F7842BE7
:101230008C936CC0A7E3B0E0E7E3F0E08081482F37
:101240008A81282F30E081E090E0022E02C0880FD2
:10125000991F0A94E2F7809584238C9357C08B8161
:101260008130A1F4A4E3B0E0E4E3F0E08081482F12
:101270008A81282F30E081E090E0022E02C0880FA2
:10128000991F0A94E2F7842B8C9340C0A4E3B0E04A
:10129000E4E3F0E08081482F8A81282F30E081E06C
:1012A00090E0022E02C0880F991F0A94E2F7809501
:1012B00084238C932BC08B818130A1F4A1E3B0E017
:1012C000E1E3F0E08081482F8A81282F30E081E03F
:1012D00090E0022E02C0880F991F0A94E2F7842B37
:1012E0008C9314C0A1E3B0E0E1E3F0E08081482FEB
:1012F0008A81282F30E081E090E0022E02C0880F22
:10130000991F0A94E2F7809584238C930F900F9095
:101310000F900F900F90CF91DF910895DF93CF93AF
:1013200000D000D00F92CDB7DEB789836A834B839C
:101330008A81883008F0E4C08981843008F0E0C0F8
:101340008981282F30E03D832C838C819D818130E1
:10135000910509F447C02C813D81223031052CF4E0
:101360008C819D81009771F0CBC02C813D81223012
:10137000310509F467C08C819D818330910509F4A2
:1013800091C0BEC08B818823A9F4ABE3B0E0EBE34E
:10139000F0E08081482F8A81282F30E081E090E0C2
:1013A000022E02C0880F991F0A94E2F780958423C9
:1013B0008C93A6C08B81813009F0A2C0ABE3B0E072
:1013C000EBE3F0E08081482F8A81282F30E081E034
:1013D00090E0022E02C0880F991F0A94E2F7842B36
:1013E0008C938EC08B818823A9F4A8E3B0E0E8E356
:1013F000F0E08081482F8A81282F30E081E090E062
:10140000022E02C0880F991F0A94E2F78095842368
:101410008C9376C08B81813009F072C0A8E3B0E074
:10142000E8E3F0E08081482F8A81282F30E081E0D6
:1014300090E0022E02C0880F991F0A94E2F7842BD5
:101440008C935EC08B818823A9F4A5E3B0E0E5E32B
:10145000F0E08081482F8A81282F30E081E090E001
:10146000022E02C0880F991F0A94E2F78095842308
:101470008C9346C08B81813009F042C0A5E3B0E077
:10148000E5E3F0E08081482F8A81282F30E081E079
:1014900090E0022E02C0880F991F0A94E2F7842B75
:1014A0008C932EC08B818823A9F4A2E3B0E0E2E301
:1014B000F0E08081482F8A81282F30E081E090E0A1
:1014C000022E02C0880F991F0A94E2F780958423A8
:1014D0008C9316C08B81813099F4A2E3B0E0E2E3F3
:1014E000F0E08081482F8A81282F30E081E090E071
:1014F000022E02C0880F991F0A94E2F7842B8C9366
:101500000F900F900F900F900F90CF91DF91089553
:10151000DF93CF93CDB7DEB729970FB6F894DEBF30
:101520000FBECDBF89836A838A81883008F08DC061
:101530008981843008F089C08981282F30E039877B
:101540002887488559854130510589F188859985D5
:101550008230910534F4288539852115310569F0EB
:1015600074C04885598542305105D9F188859985DF
:101570008330910509F44FC068C0E9E3F0E0808151
:10158000282F30E08A81882F90E0A90102C055956C
:1015900047958A95E2F7CA0181709070882319F007
:1015A00051E05E8301C01E828E818F834FC0E6E3CF
:1015B000F0E08081282F30E08A81882F90E0A90117
:1015C00002C0559547958A95E2F7CA0181709070DF
:1015D000882319F051E05D8301C01D828D818F83C6
:1015E00035C0E3E3F0E08081282F30E08A81882F46
:1015F00090E0A90102C0559547958A95E2F7CA0186
:1016000081709070882319F051E05C8301C01C82C6
:101610008C818F831BC0E0E3F0E08081282F30E0D5
:101620008A81882F90E0A90102C0559547958A9537
:10163000E2F7CA0181709070882319F051E05B8352
:1016400001C01B828B818F8301C01F828F812996ED
:101650000FB6F894DEBF0FBECDBFCF91DF910895D6
:10166000DF93CF9300D000D0CDB7DEB789836A83F4
:101670008981843090F58981282F30E03C832B8349
:101680008B819C8181309105D1F02B813C8122306E
:1016900031052CF48B819C81009761F01EC02B8159
:1016A0003C812230310581F08B819C818330910512
:1016B00081F013C0EAE3F0E08A8180830EC0E7E3A3
:1016C000F0E08A81808309C0E4E3F0E08A818083CE
:1016D00004C0E1E3F0E08A8180830F900F900F90C7
:1016E0000F90CF91DF910895DF93CF9300D000D07A
:1016F000CDB7DEB789836A838981843090F589818B
:10170000282F30E03C832B838B819C818130910595
:10171000D1F02B813C81223031052CF48B819C81CE
:10172000009761F01EC02B813C812230310581F091
:101730008B819C818330910581F013C0EBE3F0E055
:101740008A8180830EC0E8E3F0E08A81808309C04B
:10175000E5E3F0E08A81808304C0E2E3F0E08A817F
:1017600080830F900F900F900F90CF91DF9108958D
:10177000DF93CF9300D000D0CDB7DEB789838981C6
:10178000843098F58981282F30E03C832B838B812E
:101790009C8181309105D1F02B813C812230310533
:1017A0002CF48B819C81009761F01FC02B813C81C0
:1017B0002230310581F08B819C818330910581F04D
:1017C00014C0E9E3F0E090819A8310C0E6E3F0E012
:1017D00020812A830BC0E3E3F0E030813A8306C026
:1017E000E0E3F0E080818A8301C01A828A810F9051
:1017F0000F900F900F90CF91DF910895DF93CF93CB
:10180000CDB7DEB760970FB6F894DEBF0FBECDBF81
:1018100083E060E040E00E94A30883E061E040E0F4
:101820000E94A30883E062E040E00E94A30883E0F6
:1018300063E040E00E94A30883E064E040E00E948F
:10184000A30883E065E040E00E94A30883E066E02F
:1018500040E00E94A30883E067E040E00E94A30804
:101860001F86ABC083E06F8541E00E94A30883E040
:101870006F8540E00E948E09188A22C08889982FBF
:101880009C5F83E0692F0E94880A8823B1F48F85CA
:10189000882F90E0880F991F880F991F982F8889AB
:1018A000890F8F5F0E94E20C60960FB6F894DEBF3E
:1018B0000FBECDBFCF91DF91089588898F5F888B50
:1018C00088898430D8F283E06F8540E00E94A308C5
:1018D00080E090E0A0EAB0E48B879C87AD87BE876C
:1018E0006B857C858D859E8520E030E04AE753E45A
:1018F0000E947A03DC01CB018F839887A987BA877E
:101900006F81788589859A8520E030E040E85FE343
:101910000E94D40488232CF481E090E09E838D8380
:101920003FC06F81788589859A8520E03FEF4FE73A
:1019300057E40E94740418164CF56B857C858D85E0
:101940009E8520E030E040E251E40E947A03DC0111
:10195000CB01BC01CD010E94C800DC01CB019E83FC
:101960008D830FC089E190E09C838B838B819C8168
:101970000197F1F79C838B838D819E8101979E83D4
:101980008D838D819E81009769F714C06F81788562
:1019900089859A850E94C800DC01CB019E838D83D6
:1019A0008D819E819A83898389819A810197F1F73C
:1019B0009A8389838F858F5F8F878F85843008F422
:1019C00051CF4ECFDF93CF9300D000D0CDB7DEB74D
:1019D0008A8319828A81282F30E03C832B838B8174
:1019E0009C818830910509F470C02B813C8129309D
:1019F00031055CF58B819C818430910509F459C0D7
:101A00002B813C81253031059CF48B819C81823077
:101A1000910509F448C02B813C81233031050CF03D
:101A200045C08B819C818130910509F439C067C024
:101A30002B813C812630310509F441C08B819C818A
:101A4000873091050CF03EC037C02B813C812C3093
:101A5000310509F446C08B819C818D3091055CF481
:101A60002B813C812A303105B1F18B819C818B30F7
:101A70009105A4F52DC02B813C812E303105B9F1A3
:101A80008B819C818E3091057CF12B813C812F30A4
:101A9000310579F18B819C818031910569F12FC0ED
:101AA00087E089832EC088E089832BC089E0898301
:101AB00028C085E2898325C084E0898322C085E02F
:101AC00089831FC086E089831CC08AE2898319C08C
:101AD00081E0898316C082E0898313C083E0898313
:101AE00010C08DE289830DC08DE089830AC0198200
:101AF00008C08DE3898305C08BE2898302C08A8197
:101B0000898389810F900F900F900F90CF91DF9173
:101B10000895DF93CF93CDB7DEB72E970FB6F89425
:101B2000DEBF0FBECDBF82E060E041E00E94A308AF
:101B300082E061E041E00E94A30880E090E0A0EA3A
:101B4000B1E48B879C87AD87BE876B857C858D854F
:101B50009E8520E030E04AE753E40E947A03DC01EE
:101B6000CB018F839887A987BA876F81788589850C
:101B70009A8520E030E040E85FE30E94D4048823A7
:101B80002CF481E090E09E838D833FC06F81788547
:101B900089859A8520E03FEF4FE757E40E9474045F
:101BA00018164CF56B857C858D859E8520E030E090
:101BB00040E251E40E947A03DC01CB01BC01CD017B
:101BC0000E94C800DC01CB019E838D830FC089E198
:101BD00090E09C838B838B819C810197F1F79C83A0
:101BE0008B838D819E8101979E838D838D819E81C4
:101BF000009769F714C06F81788589859A850E945E
:101C0000C800DC01CB019E838D838D819E819A83E8
:101C1000898389819A810197F1F79A83898382E088
:101C200064E041E00E94A30882E065E041E00E9498
:101C3000A30882E066E041E00E94A30882E067E03A
:101C400041E00E94A30883E30E943B0E82E30E94CE
:101C50003B0E88E20E943B0E8CE00E943B0E81E02E
:101C60000E943B0E2E960FB6F894DEBF0FBECDBF7E
:101C7000CF91DF9108950F931F93DF93CF93CDB74B
:101C8000DEB7C356D0400FB6F894DEBF0FBECDBF4F
:101C9000FE01ED59FF4F808382E060E040E00E944A
:101CA0008E09FE01E15AFF4F80E090E0A0E8BFE31B
:101CB00080839183A283B3838E01055A1F4FFE0157
:101CC000E15AFF4F608171818281938120E030E091
:101CD0004AE753E40E947A03DC01CB01F8018083D8
:101CE0009183A283B383FE01E55AFF4F6081718126
:101CF0008281938120E030E040E85FE30E94D404D9
:101D0000882344F4FE01E75AFF4F81E090E091837D
:101D1000808364C0FE01E55AFF4F6081718182813A
:101D2000938120E03FEF4FE757E40E9474041816B8
:101D30000CF043C0FE01E15AFF4F60817181828146
:101D4000938120E030E040E251E40E947A03DC011C
:101D5000CB018E01075A1F4FBC01CD010E94C80064
:101D6000DC01CB01F801918380831FC0FE01E95A99
:101D7000FF4F89E190E091838083FE01E95AFF4F94
:101D8000808191810197F1F7FE01E95AFF4F91831C
:101D90008083DE01A75ABF4FFE01E75AFF4F8081C3
:101DA0009181019711969C938E93FE01E75AFF4F04
:101DB000808191810097D1F627C08E01075A1F4F6D
:101DC000FE01E55AFF4F60817181828193810E94FB
:101DD000C800DC01CB01F80191838083DE01AB5A9E
:101DE000BF4FFE01E75AFF4F808191818D939C93F5
:101DF000FE01EB5AFF4F808191810197F1F7FE01BF
:101E0000EB5AFF4F9183808382E061E041E00E94C2
:101E10008E09FE01EF5AFF4F80E090E0A0E8BFE39B
:101E200080839183A283B3838E01035B1F4FFE01E6
:101E3000EF5AFF4F608171818281938120E030E011
:101E40004AE753E40E947A03DC01CB01F801808366
:101E50009183A283B383FE01E35BFF4F60817181B5
:101E60008281938120E030E040E85FE30E94D40467
:101E7000882344F4FE01E55BFF4F81E090E091830D
:101E8000808364C0FE01E35BFF4F608171818281CA
:101E9000938120E03FEF4FE757E40E947404181647
:101EA0000CF043C0FE01EF5AFF4F608171818281C7
:101EB000938120E030E040E251E40E947A03DC01AB
:101EC000CB018E01055B1F4FBC01CD010E94C800F4
:101ED000DC01CB01F801918380831FC0FE01E75B29
:101EE000FF4F89E190E091838083FE01E75BFF4F24
:101EF000808191810197F1F7FE01E75BFF4F9183AC
:101F00008083DE01A55BBF4FFE01E55BFF4F808153
:101F10009181019711969C938E93FE01E55BFF4F93
:101F2000808191810097D1F627C08E01055B1F4FFC
:101F3000FE01E35BFF4F60817181828193810E948A
:101F4000C800DC01CB01F80191838083DE01A95B2D
:101F5000BF4FFE01E55BFF4F808191818D939C9384
:101F6000FE01E95BFF4F808191810197F1F7FE014E
:101F7000E95BFF4F91838083FE01ED59FF4F808124
:101F8000882F90E0807190709595879595958795AD
:101F90009595879595958795982F82E064E0492FD0
:101FA0000E948E09FE01ED59FF4F8081882F90E03D
:101FB000807290709595879595958795959587955D
:101FC0009595879595958795982F82E065E0492F9F
:101FD0000E948E09FE01ED59FF4F8081882F90E00D
:101FE00080749070082E892F000C881F990B000CAC
:101FF000881F991F982F82E066E0492F0E948E0962
:10200000FE01ED59FF4F8081982F991F9927991F45
:1020100082E067E0492F0E948E09FE01ED5BFF4FD1
:1020200080E090E0A0E8BFE380839183A283B38344
:102030008E01015C1F4FFE01ED5BFF4F60817181DE
:102040008281938120E030E04AE753E40E947A03E2
:10205000DC01CB01F80180839183A283B383FE016D
:10206000FF96608171818281938120E030E040E8B9
:102070005FE30E94D40488232CF481E090E09EAFBB
:102080008DAF46C0FE01FF96608171818281938190
:1020900020E03FEF4FE757E40E947404181664F500
:1020A000FE01ED5BFF4F608171818281938120E0B1
:1020B00030E040E251E40E947A03DC01CB01BC0134
:1020C000CD010E94C800DC01CB019EAF8DAF0FC0D7
:1020D00089E190E09CAF8BAF8BAD9CAD0197F1F7A0
:1020E0009CAF8BAF8DAD9EAD01979EAF8DAF8DAD8B
:1020F0009EAD009769F716C0FE01FF966081718161
:10210000828193810E94C800DC01CB019EAF8DAF1C
:102110008DAD9EAD9AAF89AF89AD9AAD0197F1F7BC
:102120009AAF89AF82E061E040E00E948E0980E0D2
:1021300090E0A0E8BFE38DAB9EABAFABB8AF6DA9AD
:102140007EA98FA998AD20E030E04AE753E40E94D1
:102150007A03DC01CB0189AB9AABABABBCAB69A911
:102160007AA98BA99CA920E030E040E85FE30E94B7
:10217000D40488232CF481E090E098AB8FA73FC073
:1021800069A97AA98BA99CA920E03FEF4FE757E402
:102190000E94740418164CF56DA97EA98FA998ADFC
:1021A00020E030E040E251E40E947A03DC01CB0100
:1021B000BC01CD010E94C800DC01CB0198AB8FA708
:1021C0000FC089E190E09EA78DA78DA59EA50197E0
:1021D000F1F79EA78DA78FA598A9019798AB8FA718
:1021E0008FA598A9009769F714C069A97AA98BA946
:1021F0009CA90E94C800DC01CB0198AB8FA78FA5DA
:1022000098A99CA78BA78BA59CA50197F1F79CA7E4
:102210008BA782E061E041E00E948E0980E090E0BF
:10222000A0E8BFE38FA398A7A9A7BAA76FA178A535
:1022300089A59AA520E030E04AE753E40E947A039A
:10224000DC01CB018BA39CA3ADA3BEA36BA17CA19E
:102250008DA19EA120E030E040E85FE30E94D4041D
:1022600088232CF481E090E09AA389A33FC06BA15E
:102270007CA18DA19EA120E03FEF4FE757E40E9493
:10228000740418164CF56FA178A589A59AA520E0CD
:1022900030E040E251E40E947A03DC01CB01BC0152
:1022A000CD010E94C800DC01CB019AA389A30FC015
:1022B00089E190E098A38F8F8F8D98A10197F1F716
:1022C00098A38F8F89A19AA101979AA389A389A125
:1022D0009AA1009769F714C06BA17CA18DA19EA162
:1022E0000E94C800DC01CB019AA389A389A19AA10D
:1022F0009E8F8D8F8D8D9E8D0197F1F79E8F8D8F87
:10230000FE01ED59FF4F8081982F917082E064E0CB
:10231000492F0E948E09FE01ED59FF4F8081882FC1
:1023200090E08270907095958795982F82E065E097
:10233000492F0E948E09FE01ED59FF4F8081882FA1
:1023400090E0847090709595879595958795982FD6
:1023500082E066E0492F0E948E09FE01ED59FF4F91
:102360008081882F90E088709070959587959595DD
:10237000879595958795982F82E067E0492F0E9471
:102380008E0980E090E0A0E8BFE3898F9A8FAB8F41
:10239000BC8F698D7A8D8B8D9C8D20E030E04AE773
:1023A00053E40E947A03DC01CB018D8B9E8BAF8BB3
:1023B000B88F6D897E898F89988D20E030E040E864
:1023C0005FE30E94D40488232CF481E090E09C8B8E
:1023D0008B8B3FC06D897E898F89988D20E03FEF80
:1023E0004FE757E40E94740418164CF5698D7A8DF6
:1023F0008B8D9C8D20E030E040E251E40E947A0316
:10240000DC01CB01BC01CD010E94C800DC01CB0185
:102410009C8B8B8B0FC089E190E09A8B898B89898B
:102420009A890197F1F79A8B898B8B899C890197FF
:102430009C8B8B8B8B899C89009769F714C06D8965
:102440007E898F89988D0E94C800DC01CB019C8B0E
:102450008B8B8B899C89988B8F878F859889019727
:10246000F1F7988B8F8782E061E040E00E948E094F
:1024700080E090E0A0E8BFE38B879C87AD87BE87B4
:102480006B857C858D859E8520E030E04AE753E4AE
:102490000E947A03DC01CB018F839887A987BA87D2
:1024A0006F81788589859A8520E030E040E85FE398
:1024B0000E94D40488232CF481E090E09E838D83D5
:1024C0003FC06F81788589859A8520E03FEF4FE78F
:1024D00057E40E94740418164CF56B857C858D8535
:1024E0009E8520E030E040E251E40E947A03DC0166
:1024F000CB01BC01CD010E94C800DC01CB019E8351
:102500008D830FC089E190E09C838B838B819C81BC
:102510000197F1F79C838B838D819E8101979E8328
:102520008D838D819E81009769F714C06F817885B6
:1025300089859A850E94C800DC01CB019E838D832A
:102540008D819E819A83898389819A810197F1F790
:102550009A838983CD59DF4F0FB6F894DEBF0FBE43
:10256000CDBFCF91DF911F910F9108950F931F93CE
:10257000DF93CF93CDB7DEB7C356D0400FB6F894F4
:10258000DEBF0FBECDBFFE01ED59FF4F808382E05D
:1025900060E041E00E948E09FE01E15AFF4F80E0B9
:1025A00090E0A0E8BFE380839183A283B3838E0190
:1025B000055A1F4FFE01E15AFF4F608171818281F0
:1025C000938120E030E04AE753E40E947A03DC0183
:1025D000CB01F80180839183A283B383FE01E55A86
:1025E000FF4F608171818281938120E030E040E87B
:1025F0005FE30E94D404882344F4FE01E75AFF4FAE
:1026000081E090E09183808364C0FE01E55AFF4F32
:10261000608171818281938120E03FEF4FE757E431
:102620000E94740418160CF043C0FE01E15AFF4FDB
:10263000608171818281938120E030E040E251E449
:102640000E947A03DC01CB018E01075A1F4FBC01A7
:10265000CD010E94C800DC01CB01F8019183808389
:102660001FC0FE01E95AFF4F89E190E0918380830A
:10267000FE01E95AFF4F808191810197F1F7FE0138
:10268000E95AFF4F91838083DE01A75ABF4FFE01B5
:10269000E75AFF4F80819181019711969C938E9309
:1026A000FE01E75AFF4F808191810097D1F627C044
:1026B0008E01075A1F4FFE01E55AFF4F608171815D
:1026C000828193810E94C800DC01CB01F8019183D3
:1026D0008083DE01AB5ABF4FFE01E75AFF4F808176
:1026E00091818D939C93FE01EB5AFF4F80819181E4
:1026F0000197F1F7FE01EB5AFF4F9183808382E04F
:1027000061E041E00E948E09FE01EF5AFF4F80E038
:1027100090E0A0E8BFE380839183A283B3838E011E
:10272000035B1F4FFE01EF5AFF4F60817181828171
:10273000938120E030E04AE753E40E947A03DC0111
:10274000CB01F80180839183A283B383FE01E35B15
:10275000FF4F608171818281938120E030E040E809
:102760005FE30E94D404882344F4FE01E55BFF4F3D
:1027700081E090E09183808364C0FE01E35BFF4FC2
:10278000608171818281938120E03FEF4FE757E4C0
:102790000E94740418160CF043C0FE01EF5AFF4F5C
:1027A000608171818281938120E030E040E251E4D8
:1027B0000E947A03DC01CB018E01055B1F4FBC0137
:1027C000CD010E94C800DC01CB01F8019183808318
:1027D0001FC0FE01E75BFF4F89E190E0918380839A
:1027E000FE01E75BFF4F808191810197F1F7FE01C8
:1027F000E75BFF4F91838083DE01A55BBF4FFE0146
:10280000E55BFF4F80819181019711969C938E9398
:10281000FE01E55BFF4F808191810097D1F627C0D3
:102820008E01055B1F4FFE01E35BFF4F60817181ED
:10283000828193810E94C800DC01CB01F801918361
:102840008083DE01A95BBF4FFE01E55BFF4F808106
:1028500091818D939C93FE01E95BFF4F8081918173
:102860000197F1F7FE01E95BFF4F91838083FE0141
:10287000ED59FF4F8081882F90E080719070959581
:102880008795959587959595879595958795982F93
:1028900082E064E0492F0E948E09FE01ED59FF4F4E
:1028A0008081882F90E0807290709595879595959E
:1028B0008795959587959595879595958795982F63
:1028C00082E065E0492F0E948E09FE01ED59FF4F1D
:1028D0008081882F90E080749070082E892F000CE2
:1028E000881F990B000C881F991F982F82E066E0C3
:1028F000492F0E948E09FE01ED59FF4F8081982FCC
:10290000991F9927991F82E067E0492F0E948E093D
:10291000FE01ED5BFF4F80E090E0A0E8BFE3808325
:102920009183A283B3838E01015C1F4FFE01ED5B97
:10293000FF4F608171818281938120E030E04AE71E
:1029400053E40E947A03DC01CB01F8018083918378
:10295000A283B383FE01FF9660817181828193819E
:1029600020E030E040E85FE30E94D40488232CF4A8
:1029700081E090E09EAF8DAF46C0FE01FF96608182
:1029800071818281938120E03FEF4FE757E40E94FD
:102990007404181664F5FE01ED5BFF4F60817181D0
:1029A0008281938120E030E040E251E40E947A038A
:1029B000DC01CB01BC01CD010E94C800DC01CB01D0
:1029C0009EAF8DAF0FC089E190E09CAF8BAF8BAD18
:1029D0009CAD0197F1F79CAF8BAF8DAD9EAD01978C
:1029E0009EAF8DAF8DAD9EAD009769F716C0FE010D
:1029F000FF9660817181828193810E94C800DC0111
:102A0000CB019EAF8DAF8DAD9EAD9AAF89AF89AD35
:102A10009AAD0197F1F79AAF89AF82E061E040E0AB
:102A20000E948E0980E090E0A0E8BFE38DAB9EABF2
:102A3000AFABB8AF6DA97EA98FA998AD20E030E00B
:102A40004AE753E40E947A03DC01CB0189AB9AABDD
:102A5000ABABBCAB69A97AA98BA99CA920E030E0FB
:102A600040E85FE30E94D40488232CF481E090E0E6
:102A700098AB8FA73FC069A97AA98BA99CA920E030
:102A80003FEF4FE757E40E94740418164CF56DA908
:102A90007EA98FA998AD20E030E040E251E40E9489
:102AA0007A03DC01CB01BC01CD010E94C800DC012E
:102AB000CB0198AB8FA70FC089E190E09EA78DA7AF
:102AC0008DA59EA50197F1F79EA78DA78FA598A923
:102AD000019798AB8FA78FA598A9009769F714C0A5
:102AE00069A97AA98BA99CA90E94C800DC01CB0125
:102AF00098AB8FA78FA598A99CA78BA78BA59CA502
:102B00000197F1F79CA78BA782E061E041E00E946A
:102B10008E0980E090E0A0E8BFE38FA398A7A9A763
:102B2000BAA76FA178A589A59AA520E030E04AE769
:102B300053E40E947A03DC01CB018BA39CA3ADA3D9
:102B4000BEA36BA17CA18DA19EA120E030E040E856
:102B50005FE30E94D40488232CF481E090E09AA3E0
:102B600089A33FC06BA17CA18DA19EA120E03FEF76
:102B70004FE757E40E94740418164CF56FA178A52E
:102B800089A59AA520E030E040E251E40E947A0352
:102B9000DC01CB01BC01CD010E94C800DC01CB01EE
:102BA0009AA389A30FC089E190E098A38F8F8F8D9E
:102BB00098A10197F1F798A38F8F89A19AA1019706
:102BC0009AA389A389A19AA1009769F714C06BA160
:102BD0007CA18DA19EA10E94C800DC01CB019AA31B
:102BE00089A389A19AA19E8F8D8F8D8D9E8D01972E
:102BF000F1F79E8F8D8FFE01ED59FF4F8081982F49
:102C0000917082E064E0492F0E948E09FE01ED5927
:102C1000FF4F8081882F90E0827090709595879506
:102C2000982F82E065E0492F0E948E09FE01ED5940
:102C3000FF4F8081882F90E08470907095958795E4
:102C400095958795982F82E066E0492F0E948E091E
:102C5000FE01ED59FF4F8081882F90E088709070C1
:102C6000959587959595879595958795982F82E069
:102C700067E0492F0E948E0980E090E0A0E8BFE362
:102C8000898F9A8FAB8FBC8F698D7A8D8B8D9C8D40
:102C900020E030E04AE753E40E947A03DC01CB01F4
:102CA0008D8B9E8BAF8BB88F6D897E898F89988D28
:102CB00020E030E040E85FE30E94D40488232CF455
:102CC00081E090E09C8B8B8B3FC06D897E898F89E2
:102CD000988D20E03FEF4FE757E40E9474041816E8
:102CE0004CF5698D7A8D8B8D9C8D20E030E040E233
:102CF00051E40E947A03DC01CB01BC01CD010E94AA
:102D0000C800DC01CB019C8B8B8B0FC089E190E06C
:102D10009A8B898B89899A890197F1F79A8B898B8C
:102D20008B899C8901979C8B8B8B8B899C890097C5
:102D300069F714C06D897E898F89988D0E94C800BB
:102D4000DC01CB019C8B8B8B8B899C89988B8F872B
:102D50008F8598890197F1F7988B8F8782E061E0E2
:102D600040E00E948E0980E090E0A0E8BFE38B87FE
:102D70009C87AD87BE876B857C858D859E8520E091
:102D800030E04AE753E40E947A03DC01CB018F83F1
:102D90009887A987BA876F81788589859A8520E089
:102DA00030E040E85FE30E94D40488232CF481E003
:102DB00090E09E838D833FC06F81788589859A8559
:102DC00020E03FEF4FE757E40E94740418164CF5DB
:102DD0006B857C858D859E8520E030E040E251E466
:102DE0000E947A03DC01CB01BC01CD010E94C80026
:102DF000DC01CB019E838D830FC089E190E09C8331
:102E00008B838B819C810197F1F79C838B838D81D0
:102E10009E8101979E838D838D819E81009769F7A6
:102E200014C06F81788589859A850E94C800DC016D
:102E3000CB019E838D838D819E819A838983898135
:102E40009A810197F1F79A838983CD59DF4F0FB6A5
:102E5000F894DEBF0FBECDBFCF91DF911F910F91D0
:102E60000895DF93CF9300D00F92CDB7DEB79B8349
:102E70008A8319820EC08981282F30E08A819B8144
:102E8000FC01E20FF31F80810E94B61289818F5FDF
:102E900089838981282F30E08A819B81FC01E20FA0
:102EA000F31F8081882339F70F900F900F90CF91F7
:102EB000DF910895DF93CF9300D000D00F92CDB76C
:102EC000DEB78A836B838A81282F30E03D832C8391
:102ED0008C819D8181309105C1F02C813D81223012
:102EE00031052CF48C819D81009761F019C02C81F3
:102EF0003D812230310569F08C819D8183309105BF
:102F000061F00EC08B8189830BC08B81805C8983CB
:102F100007C08B81805F898303C08B81805B89833D
:102F2000898180680E943B0E0F900F900F900F9048
:102F30000F90CF91DF910895DF93CF9300D000D011
:102F4000CDB7DEB789836A835C834B8389816A81CD
:102F50000E945A178B819C810E9431170F900F900D
:102F60000F900F90CF91DF910895DF93CF93CDB75E
:102F7000DEB762970FB6F894DEBF0FBECDBF9A8B57
:102F8000898B89899A899E012F5F3F4FB9014AE059
:102F900050E00E94FF1ECE0101960E9431176296FA
:102FA0000FB6F894DEBF0FBECDBFCF91DF9108956D
:102FB000DF93CF93CDB7DEB781E00E943B0ECF9178
:102FC000DF910895AF92BF92CF92DF92EF92FF927E
:102FD0000F931F93DF93CF93CDB7DEB7C256D04088
:102FE0000FB6F894DEBF0FBECDBF9B878A876C8774
:102FF0001A821B821C821D821E821F8218861986DD
:10300000198206C32A813B814C815D816E817F815B
:1030100088859985A22EB32EC42ED52EE62EF72EA6
:10302000082F192F2A2D3B2D4C2D5D2D6E2D7F2D18
:10303000802F912F01E00E9449002D8B3E8B4F8BFA
:10304000588F698F7A8F8B8F9C8F2D893E894F89FE
:10305000588D698D7A8D8B8D9C8D02E00E94490080
:103060002D8F3E8F4F8F58A369A37AA38BA39CA368
:103070000D891D8D010F0DA321E02DA73DA14D89C7
:10308000341708F01DA65E896E8D560F5EA371E0A1
:103090007EA78EA19E89891708F01EA60DA51EA1E8
:1030A000010F0FA721E028AB3FA54EA1341708F070
:1030B00018AA5EA568A9562B5EA77FA57EA38F8957
:1030C0009F8D890F8FA301E009AB1FA12F891217D4
:1030D00008F019AA3EA54FA1340F3AAB51E05BAB03
:1030E0006AA97FA1671708F01BAA89A99BA9892B48
:1030F00089AB0AA90FA3188D28A1120F18A731E0D8
:103100003CAB48A5588D451708F01CAA69A978A5BD
:10311000670F6DAB81E08EAB9DA908A5901708F0F5
:103120001EAA1CA92EA9122B1CAB3DA938A7498D9C
:1031300059A1450F49A761E06FAB79A5898D781733
:1031400008F01FAA9CA909A5900F98AF11E019AF2C
:1031500028AD39A5231708F019AE4FA959AD452B55
:103160004FAB68AD69A77A8D8AA1780F7AA791E0F5
:103170009AAF0AA51A8D011708F01AAE2FA93AA521
:10318000230F2BAF41E04CAF5BAD6AA5561708F09B
:103190001CAE7AAD8CAD782B7AAF9BAD9AA70B8D18
:1031A0001BA1010F0BA721E02DAF3BA54B8D3417C1
:1031B00008F01DAE5AAD6BA5560F5EAF71E07FAF44
:1031C0008EAD9BA5891708F01FAE0DAD1FAD012B6D
:1031D0000DAF2EAD2BA73C8D4CA1340F3CA78DAD70
:1031E0005CA5850F8CA76DA16A837EA17B838FA1CF
:1031F0008C8398A59D8309A50E831AA51F832BA5F3
:1032000028873CA539878981282F30E08A859B85CE
:10321000FC01E20FF31F8081082F10E020E030E076
:1032200040E050E060E070E00D871E872F87388B0C
:10323000498B5A8B6B8B7C8B1A8121961FAF219700
:103240002B8122962FAF22973C8123963FAF239765
:103250004D8124964FAF24975E8125965FAF2597C9
:103260006F8126966FAF2697788527967FAF279731
:10327000898528968FAF289721969FAD21970D8538
:10328000900F29969FAF299711E061961FAF619724
:1032900029962FAD299721963FAD2197231718F036
:1032A00061961FAE619722964FAD22975E85450FBE
:1032B0002A964FAF2A9761E062966FAF62972A967F
:1032C0007FAD2A9722968FAD2297781718F06296D5
:1032D0001FAE629761969FAD61972A960FAD2A97B0
:1032E000900F63969FAF639711E064961FAF64974A
:1032F00063962FAD63972A963FAD2A97231718F050
:1033000064961FAE649762964FAD629764965FAD08
:103310006497452B62964FAF629763966FAD639744
:103320002A966FAF2A9723967FAD23978F85780FC4
:103330002B967FAF2B9791E065969FAF65972B9665
:103340000FAD2B9723961FAD2397011718F06596A5
:103350001FAE659762962FAD62972B963FAD2B9768
:10336000230F66962FAF669741E067964FAF67973A
:1033700066965FAD66972B966FAD2B97561718F034
:1033800067961FAE679765967FAD659767968FAD19
:103390006797782B65967FAF659766969FAD669722
:1033A0002B969FAF2B9724960FAD24971889010F6A
:1033B0002C960FAF2C9721E068962FAF68972C962C
:1033C0003FAD2C9724964FAD2497341718F068968C
:1033D0001FAE689765965FAD65972C966FAD2C977D
:1033E000560F69965FAF699771E06A967FAF6A97EB
:1033F00069968FAD69972C969FAD2C97891718F019
:103400006A961FAE6A9768960FAD68976A961FAD69
:103410006A97012B68960FAF689769962FAD6997E9
:103420002C962FAF2C9725963FAD25974989340FC1
:103430002D963FAF2D9751E06B965FAF6B972D9612
:103440006FAD2D9725967FAD2597671718F06B9672
:103450001FAE6B9768968FAD68972D969FAD2D9791
:10346000890F6C968FAF6C9701E06D960FAF6D97DB
:103470006C961FAD6C972D962FAD2D97121718F0E7
:103480006D961FAE6D976B963FAD6B976D964FAD7A
:103490006D97342B6B963FAF6B976C965FAD6C97C7
:1034A0002D965FAF2D9726966FAD26977A89670F79
:1034B0002E966FAF2E9781E06E968FAF6E972E96F9
:1034C0009FAD2E9726960FAD2697901718F06E9603
:1034D0001FAE6E976B961FAD6B972E962FAD2E97E6
:1034E000120F6F961FAF6F9731E0A0963FAFA09776
:1034F0006F964FAD6F972E965FAD2E97451718F0CC
:10350000A0961FAEA0976E966FAD6E97A0967FADFA
:10351000A097672B6E966FAF6E976F968FAD6F9774
:103520002E968FAF2E9727969FAD27970B89900FDA
:103530002F969FAF2F9711E0A1961FAFA1972F96BF
:103540002FAD2F9727963FAD2797231718F0A196F9
:103550001FAEA1976E964FAD6E972F965FAD2F97CA
:10356000450FA2964FAFA29761E0A3966FAFA397C6
:10357000A2967FADA2972F968FAD2F97781718F050
:10358000A3961FAEA397A1969FADA197A3960FAD4B
:10359000A397902BA1969FAFA197A2961FADA2973C
:1035A0002F961FAF2F9728962FAD28973C89230F72
:1035B00060962FAF6097A1968FADA19760964FADA3
:1035C0006097840F60968FAF609729965FAD2997BB
:1035D0005A832A966FAD2A976B832B967FAD2B97D4
:1035E0007C832C968FAD2C978D832D969FAD2D9738
:1035F0009E832E960FAD2E970F832F961FAD2F977C
:10360000188760962FAD6097298789818F5F89839E
:1036100099818C85981708F4F5CC2A813B814C81DF
:103620005D816E817F8188859985A22EB32EC42EFF
:10363000D52EE62EF72E082F192F2A2D3B2D4C2D97
:103640005D2D6E2D7F2D802F912FCE59DF4F0FB620
:10365000F894DEBF0FBECDBFCF91DF911F910F91C8
:10366000FF90EF90DF90CF90BF90AF900895DF93E1
:10367000CF93CDB7DEB71092F6011092F7011092FA
:10368000F8011092F9011092FA011092FB011092C8
:10369000FC011092FD011092060210920602109297
:1036A00007020E94D81780E690E00E94311781E05F
:1036B00060E00E945A17CF91DF910895DF93CF9376
:1036C0000F92CDB7DEB78983809106028031C8F4AE
:1036D00089818A3030F48981882F90E00E94B51763
:1036E00003C089810E94B61220910602822F90E0C9
:1036F000FC01EA50FE4F89818083822F8F5F809387
:1037000006020F90CF91DF9108958F929F92AF9212
:10371000BF92CF92DF92EF92FF920F931F93DF93AE
:10372000CF93CDB7DEB7C654D0400FB6F894DEBF06
:103730000FBECDBF1A8280E1FE013496DF01982FC3
:103740001D929A95E9F719821B826CC08B81882F94
:1037500090E0FC01EA50FE4F80818A30A0F489811C
:10376000282F30E08B81882F90E0FC01EA50FE4F3B
:103770004081CE010496FC01E20FF31F4083898152
:103780008F5F89834CC08A81882E9924CE0104964C
:1037900069810E94E217A22EB32EC42ED52EE62EEA
:1037A000F72E082F192FC401880F991F880F991F12
:1037B000880F991FFC01EA58FE4FA082B182C28295
:1037C000D382E482F582068317838A818F5F8A839E
:1037D0008A81A82FB0E08B81882F90E0FC01EA500D
:1037E000FE4F8081282F30E040E050E060E070E044
:1037F00080E090E0FD01EE0FFF1FEE0FFF1FEE0FC8
:10380000FF1FEA58FE4F2083318342835383648332
:103810007583868397838A818F5F8A8319828B81E0
:103820008F5F8B83909106028B81981708F08ECF63
:103830008981882329F18A81882E9924CE010496D2
:1038400069810E94E217A22EB32EC42ED52EE62E39
:10385000F72E082F192FC401880F991F880F991F61
:10386000880F991FFC01EA58FE4FA082B182C282E4
:10387000D382E482F582068317838A818F5F8A83ED
:1038800019821B8282C18B81882F90E0880F991F3B
:10389000880F991F880F991FFC01EA58FE4FA081DD
:1038A000ACA3B181BDA382818EA393819FA3A48188
:1038B000A8A7B581B9A786818AA797819BA7ACA144
:1038C000AB3209F05FC1BDA1BB2309F05BC18EA182
:1038D000882309F057C19FA1992309F053C1A8A5D6
:1038E000AA2309F04FC1B9A5BB2309F04BC18AA592
:1038F000882309F047C19BA5992309F043C18B8117
:10390000882F90E00197880F991F880F991F880FC3
:10391000991FFC01EA58FE4FA081AC8FB181BD8F89
:1039200082818E8F93819F8FA481A8A3B581B9A333
:1039300086818AA397819BA38B81882F90E0019633
:10394000880F991F880F991F880F991FFC01EA584B
:10395000FE4FA081AC8BB181BD8B82818E8B938118
:103960009F8BA481A88FB581B98F86818A8F97811B
:103970009B8FAC8DBC89AB0FACA781E08CAB9CA5B9
:10398000AC8D9A1708F01CAABD8D8D89B80FBDA704
:1039900091E09DABADA5BD8DAB1708F01DAA8CA91C
:1039A0009DA5890F8EABA1E0AFABBEA98DA5B817C1
:1039B00008F01FAA9DA9AFA99A2B9DABBEA9BDA7D0
:1039C0008E8D9E89890F8EA7A1E0A8AFBEA58E8D92
:1039D000B81708F018AE9DA9AEA59A0F99AFB1E03F
:1039E000BAAF89AD9EA5891708F01AAEA8ADBAADD9
:1039F000AB2BA8AF89AD8EA79F8DAF899A0F9FA7DC
:103A0000B1E0BBAF8FA59F8D891708F01BAEA8ADA5
:103A1000BFA5AB0FACAF81E08DAF9CADAFA59A1742
:103A200008F01DAEBBAD8DADB82BBBAF9CAD9FA755
:103A3000A8A1B88DAB0FA8AB81E08EAF98A9A8A1C3
:103A40009A1708F01EAEBBAD88A9B80FBFAF91E0C2
:103A500021969FAF2197AFADB8A9AB1718F021966B
:103A60001FAE21978EAD21969FAD2197892B8EAFEA
:103A7000AFADA8ABB9A1898DB80FB9AB91E02296D3
:103A80009FAF2297A9A9B9A1AB1718F022961FAE34
:103A900022978EAD99A9890F23968FAF2397A1E026
:103AA0002496AFAF24972396BFAD239789A9B81763
:103AB00018F024961FAE249722969FAD2297249645
:103AC000AFAD24979A2B22969FAF22972396BFAD36
:103AD0002397B9AB8AA19A8D890F8AABA1E025966D
:103AE000AFAF2597BAA98AA1B81718F025961FAECF
:103AF000259722969FAD2297AAA99A0F26969FAF47
:103B00002697B1E02796BFAF279726968FAD2697C9
:103B10009AA9891718F027961FAE27972596AFAD5B
:103B200025972796BFAD2797AB2B2596AFAF259747
:103B300026968FAD26978AAB9BA1AB8D9A0F9BAB38
:103B400025968FAD2597BBA98B0F8BABACA4BDA4DD
:103B5000CEA4DFA4E8A8F9A80AA91BA92A2D3B2D09
:103B60004C2D5D2D6E2D7F2D802F912F0E94F40006
:103B7000DC01CB018093080290930902A0930A0212
:103B8000B0930B028B818F5F8B839B818A81981707
:103B900008F479CE8A81813021F5A0907601B09029
:103BA0007701C0907801D0907901E0907A01F0908F
:103BB0007B0100917C0110917D012A2D3B2D4C2D24
:103BC0005D2D6E2D7F2D802F912F0E94F400DC0142
:103BD000CB018093080290930902A0930A02B0934C
:103BE0000B022CE630E083E060E0A9010E949C1704
:103BF0008091080290910902A0910A02B0910B02F3
:103C0000BC01CD010E946205DC01CB010E94B51709
:103C100081E080930702CA5BDF4F0FB6F894DEBFE6
:103C20000FBECDBFCF91DF911F910F91FF90EF900D
:103C3000DF90CF90BF90AF909F908F900895DF93CB
:103C4000CF93CDB7DEB761970FB6F894DEBF0FBE46
:103C5000CDBF0E94890D80E690E00E94311781E07F
:103C600060E00E945A170E94FE0B8F878091070226
:103C7000882311F00E94371B8F85282F30E0398B65
:103C8000288B888999898D30910531F02889398967
:103C90002D33310521F006C00E94371B06C00E945B
:103CA000851B03C08F850E945E1B80E090E0A8E426
:103CB000B3E48B879C87AD87BE876B857C858D85BC
:103CC0009E8520E030E04AE753E40E947A03DC015D
:103CD000CB018F839887A987BA876F81788589857B
:103CE0009A8520E030E040E85FE30E94D404882316
:103CF0002CF481E090E09E838D833FC06F817885B6
:103D000089859A8520E03FEF4FE757E40E947404CD
:103D100018164CF56B857C858D859E8520E030E0FE
:103D200040E251E40E947A03DC01CB01BC01CD01E9
:103D30000E94C800DC01CB019E838D830FC089E106
:103D400090E09C838B838B819C810197F1F79C830E
:103D50008B838D819E8101979E838D838D819E8132
:103D6000009769F780CF6F81788589859A850E9451
:103D7000C800DC01CB019E838D838D819E819A8357
:103D8000898389819A810197F1F79A8389836BCF1F
:103D90002F923F924F925F926F927F928F929F925B
:103DA000AF92BF92CF92DF92EF92FF920F931F9349
:103DB000CF93DF93CDB7DEB7CA1BDB0B0FB6F894FA
:103DC000DEBF0FBECDBF09942A88398848885F843A
:103DD0006E847D848C849B84AA84B984C884DF80AB
:103DE000EE80FD800C811B81AA81B981CE0FD11D8F
:103DF0000FB6F894DEBF0FBECDBFED010895FB01F5
:103E00009F01E8944230C4F04532B4F44A3029F4BA
:103E100097FB1EF4909581959F4F642F77270E9402
:103E2000301F805D8A330CF0895D8193CB01009750
:103E3000A1F716F45DE251931082C9010C94201F82
:103E4000DC01FC01672F71917723E1F7329704C001
:103E50007C916D9370836291AE17BF07C8F308958C
:103E6000AA1BBB1B51E107C0AA1FBB1FA617B707A0
:103E700010F0A61BB70B881F991F5A95A9F78095BC
:0C3E80009095BC01CD010895F894FFCF8F
:103E8C0043414C43554C41544F523A003D000000C5
:103E9C0000000000000000010202030303030404FD
:103EAC0004040404040405050505050505050505BC
:103EBC00050505050505060606060606060606069C
:103ECC000606060606060606060606060606060686
:103EDC00060606060606070707070707070707076C
:103EEC000707070707070707070707070707070756
:103EFC000707070707070707070707070707070746
:103F0C000707070707070707070707070707070735
:103F1C00070707070707080808080808080808081B
:103F2C000808080808080808080808080808080805
:103F3C0008080808080808080808080808080808F5
:103F4C0008080808080808080808080808080808E5
:103F5C0008080808080808080808080808080808D5
:103F6C0008080808080808080808080808080808C5
:103F7C0008080808080808080808080808080808B5
:103F8C0008080808080808080808080808080808A5
:063F9C00080808080808EF
:00000001FF
