:100000000C942A000C9447000C9447000C94470071
:100010000C9447000C9447000C9447000C94470044
:100020000C9447000C9447000C9447000C94470034
:100030000C9447000C9447000C9447000C94470024
:100040000C9447000C9447000C9447000C94470014
:100050000C94470011241FBECFE5D4E0DEBFCDBF16
:1000600011E0A0E6B0E0E2E4F9E302C005900D92F1
:10007000A838B107D9F711E0A8E8B1E001C01D9296
:10008000AE39B107E1F70E947A1B0C949F1C0C94C7
:100090000000EF92FF920F931F937B018C0120E0F1
:1000A00030E040E05FE40E94250488238CF0C80122
:1000B000B70120E030E040E05FE40E94C1010E940F
:1000C000E3049B01AC01205030404040504806C042
:1000D000C801B7010E94E3049B01AC01B901CA0148
:1000E0001F910F91FF90EF900895A0E0B0E0EBE733
:1000F000F0E00C94231CDC012B01FA019C9192305E
:1001000008F439C1EB018881823008F433C194309E
:1001100069F4843009F02FC111969C91119789815F
:10012000981709F428C1AFE7B0E025C1843009F47D
:1001300021C18230A9F4923009F01DC19A01AD01AC
:1001400088E0EA010990AE01E90109929E0181501F
:10015000C1F7E201898111969C918923818308C1AD
:10016000923009F407C112962D903C901397EB0141
:100170008A819B811496AD90BD90CD90DC901797AD
:10018000EC80FD800E811F819101281B390BB90184
:1001900037FF04C066277727621B730B6032710537
:1001A0000CF061C0121613066CF537014801062EDB
:1001B00004C096948794779467940A94D2F721E0C8
:1001C00030E040E050E004C0220F331F441F551FB1
:1001D0006A95D2F721503040404050402E213F21B7
:1001E00040235123211531054105510521F021E01E
:1001F00030E040E050E079018A01E628F72808293C
:1002000019293CC0232BD1F1260E371E350146019A
:10021000062E04C096948794779467940A94D2F734
:1002200021E030E040E050E004C0220F331F441FC3
:10023000551F6A95D2F721503040404050402A2146
:100240003B214C215D21211531054105510521F04E
:1002500021E030E040E050E059016A01A628B728CB
:10026000C828D9280BC0821593052CF01C01AA249C
:10027000BB24650103C0EE24FF24870111969C91E5
:10028000D20111968C91981709F445C0992339F041
:10029000A80197012A193B094C095D0906C0A6016E
:1002A00095012E193F09400B510B57FD08C01182D3
:1002B0003382228224833583468357831DC081E0A5
:1002C00081833382228288279927DC01821B930B4A
:1002D000A40BB50B84839583A683B7830DC0220F2F
:1002E000331F441F551F24833583468357838281E0
:1002F000938101979383828324813581468157813D
:10030000DA01C9010197A109B1098F5F9F4FAF4F72
:10031000BF4328F30BC0918333822282EA0CFB1C7B
:100320000C1D1D1DE482F5820683178383E0808304
:10033000248135814681578157FF1AC0C901AA27F8
:1003400097FDA095BA2F81709070A070B0705695EF
:10035000479537952795822B932BA42BB52B848318
:100360009583A683B7838281938101969383828349
:10037000DF0101C0D201CD01CDB7DEB7E2E10C94BF
:100380003F1CA0E2B0E0E7ECF1E00C942F1C698385
:100390007A838B839C832D833E834F835887E9E048
:1003A000EE2EF12CEC0EFD1ECE010196B7010E943F
:1003B000D4068E010F5E1F4FCE010596B8010E9434
:1003C000D4068A8991E089278A8BC701B801AE01DA
:1003D000475E5F4F0E9475000E94FF05A096E6E011
:1003E0000C944B1CA0E2B0E0E8EFF1E00C942F1C61
:1003F00069837A838B839C832D833E834F835887C5
:10040000F9E0EF2EF12CEC0EFD1ECE010196B701A6
:100410000E94D4068E010F5E1F4FCE010596B801D3
:100420000E94D406C701B801AE01475E5F4F0E942B
:1004300075000E94FF05A096E6E00C944B1CA0E21C
:10044000B0E0E5E2F2E00C94231C69837A838B83AD
:100450009C832D833E834F835887CE010196BE0136
:10046000675F7F4F0E94D406CE010596BE016F5E86
:100470007F4F0E94D4069985923088F08989823016
:10048000C8F0943019F4823051F404C0843029F457
:10049000923081F48FE790E0C6C0923049F420E0BA
:1004A0009A858A89981321E02A87CE010996BBC0D4
:1004B000823049F420E09A858A89981321E02A8BBA
:1004C000CE014196B0C02D843E844F8458886D88FB
:1004D0007E888F88988CEE24FF248701AA24BB2471
:1004E000650140E050E060E070E0E0E0F0E0C10174
:1004F00081709070892BE9F0E60CF71C081D191D1E
:100500009A01AB012A0D3B1D4C1D5D1D80E090E062
:10051000A0E0B0E0E614F7040805190520F481E036
:1005200090E0A0E0B0E0BA01A901480F591F6A1F8E
:100530007B1FAA0CBB1CCC1CDD1C97FE08C081E0F5
:1005400090E0A0E0B0E0A82AB92ACA2ADB2A3196B6
:10055000E032F10549F0660C771C881C991C569412
:10056000479437942794C3CFFA85EA892B893C892D
:100570008B859C85280F391F2E5F3F4F17C0CA01FE
:1005800081709070892B61F016950795F794E79428
:1005900080E090E0A0E0B0E8E82AF92A0A2B1B2BC3
:1005A00076956795579547952F5F3F4F77FDE7CF36
:1005B0000CC0440F551F661F771F17FD4160EE0CDE
:1005C000FF1C001F111F21503040403090E05907A0
:1005D00090E0690790E4790760F32B8F3C8FDB0193
:1005E000CA018F779070A070B07080349105A1051A
:1005F000B10561F447FD0AC0E114F10401051105DC
:1006000029F0405C5F4F6F4F7F4F40781A8EFE1786
:1006100011F081E08A8F4D8F5E8F6F8F78A383E01A
:10062000898FCE0149960E94FF05A096E2E10C94C5
:100630003F1CA8E1B0E0EFE1F3E00C942B1C6983D0
:100640007A838B839C832D833E834F835887B9E0C5
:10065000EB2EF12CEC0EFD1ECE010196B7010E948F
:10066000D4068E010F5E1F4FCE010596B8010E9481
:10067000D4062985223008F47EC03989323010F43E
:10068000B8017CC08A859A8989278A87243011F02D
:10069000223031F4231709F06EC06FE770E06EC0AE
:1006A000343039F41D861E861F86188A1C861B86E8
:1006B00004C0323021F484E08987B7015FC02B8504
:1006C0003C858B899C89281B390B3C872B87ED84C3
:1006D000FE840F851889AD88BE88CF88D88CEA142F
:1006E000FB040C051D0540F4EE0CFF1C001F111F40
:1006F000215030403C872B8720E030E040E050E044
:1007000080E090E0A0E0B0E460E070E0EA14FB0478
:100710000C051D0540F0282B392B4A2B5B2BEA18C2
:10072000FB080C091D09B695A79597958795EE0CC2
:10073000FF1C001F111F6F5F7F4F6F31710531F775
:10074000DA01C9018F779070A070B0708034910584
:10075000A105B10561F427FD0AC0E114F10401050A
:10076000110529F0205C3F4F4F4F5F4F20782D87B8
:100770003E874F87588BBE01675F7F4FCB010E943A
:10078000FF056896EAE00C94471CA8E1B0E0EBECAA
:10079000F3E00C942F1C69837A838B839C832D83D5
:1007A0003E834F83588789E0E82EF12CEC0EFD1E26
:1007B000CE010196B7010E94D4068E010F5E1F4F35
:1007C000CE010596B8010E94D4068985823040F09A
:1007D0008989823028F0C701B8010E944C0701C006
:1007E00081E06896E6E00C944B1CA8E1B0E0EBEFEA
:1007F000F3E00C942F1C69837A838B839C832D8375
:100800003E834F83588789E0E82EF12CEC0EFD1EC5
:10081000CE010196B7010E94D4068E010F5E1F4FD4
:10082000CE010596B8010E94D4068985823040F039
:100830008989823028F0C701B8010E944C0701C0A5
:100840008FEF6896E6E00C944B1CA8E1B0E0EBE279
:10085000F4E00C942F1C69837A838B839C832D8313
:100860003E834F83588789E0E82EF12CEC0EFD1E65
:10087000CE010196B7010E94D4068E010F5E1F4F74
:10088000CE010596B8010E94D4068985823040F0D9
:100890008989823028F0C701B8010E944C0701C045
:1008A0008FEF6896E6E00C944B1CA8E1B0E0EBE516
:1008B000F4E00C942F1C69837A838B839C832D83B3
:1008C0003E834F83588789E0E82EF12CEC0EFD1E05
:1008D000CE010196B7010E94D4068E010F5E1F4F14
:1008E000CE010596B8010E94D4068985823040F079
:1008F0008989823028F0C701B8010E944C0701C0E5
:1009000081E06896E6E00C944B1CA8E0B0E0EBE8D0
:10091000F4E00C942C1C9B01AC0183E08983DA0188
:10092000C9018827B7FD83959927AA27BB27B82E29
:10093000211531054105510519F482E089833AC03A
:100940008823A9F0203080E0380780E0480780E85D
:10095000580729F460E070E080E09FEC30C0EE249E
:10096000FF248701E21AF30A040B150B02C0790178
:100970008A018EE1C82ED12CDC82CB82ED82FE82F0
:100980000F831887C801B7010E94B0050197181698
:10099000190684F4082E04C0EE0CFF1C001F111F62
:1009A0000A94D2F7ED82FE820F831887C81AD90AFB
:1009B000DC82CB82BA82CE0101960E94FF05289686
:1009C000E9E00C94481CACE0B0E0E9EEF4E00C94F3
:1009D000331C69837A838B839C83CE010196BE018D
:1009E0006B5F7F4F0E94D4068D81823061F182302F
:1009F00050F1843021F48E81882351F12EC02F8153
:100A0000388537FD20C06E812F3131051CF06623FB
:100A1000F9F023C08EE190E0821B930B29853A8583
:100A20004B855C8504C056954795379527958A95E3
:100A3000D2F76623B1F050954095309521953F4F00
:100A40004F4F5F4F0EC020E030E040E050E009C063
:100A50002FEF3FEF4FEF5FE704C020E030E040E0D2
:100A600050E8B901CA012C96E2E00C944F1CA8E0B2
:100A7000B0E0EDE3F5E00C942B1C7B018C016115DB
:100A800071058105910519F482E0898360C083E0D6
:100A900089838EE1C82ED12CDC82CB82ED82FE824E
:100AA0000F831887C801B7010E94B005FC01319778
:100AB000F7FF3BC0222733272E1B3F0B570168014E
:100AC000022E04C0D694C794B794A7940A94D2F780
:100AD00040E050E060E070E081E090E0A0E0B0E055
:100AE00004C0880F991FAA1FBB1F2A95D2F7019730
:100AF000A109B1098E219F21A023B1230097A1054F
:100B0000B10521F041E050E060E070E04A295B2946
:100B10006C297D294D835E836F8378878EE190E019
:100B20008E1B9F0B9C838B8312C0309781F00E2EFF
:100B300004C0EE0CFF1C001F111F0A94D2F7ED82B7
:100B4000FE820F831887CE1ADF0ADC82CB821A82DC
:100B5000CE0101960E94FF052896EAE00C94471CFE
:100B6000EF92FF920F931F937B018C0180E0E816B8
:100B700080E0F80681E0080780E0180788F48FEF2E
:100B8000E816F1040105110531F028F088E090E045
:100B9000A0E0B0E017C080E090E0A0E0B0E012C0BC
:100BA00080E0E81680E0F80680E0080781E018079A
:100BB00028F088E190E0A0E0B0E004C080E190E09F
:100BC000A0E0B0E020E230E040E050E0281B390B2C
:100BD0004A0B5B0B04C016950795F794E7948A952A
:100BE000D2F7F701E957FF4F8081281B31094109EE
:100BF0005109C9011F910F91FF90EF900895DF9265
:100C0000EF92FF920F931F93FC01E480F580068121
:100C10001781D1808081823048F480E090E0A0E1AB
:100C2000B0E0E82AF92A0A2B1B2BA5C0843009F46E
:100C30009FC0823021F4EE24FF24870105C0E11417
:100C4000F1040105110519F4E0E0F0E096C06281BD
:100C500073819FEF623879070CF05BC022E83FEFA9
:100C6000261B370B2A3131052CF020E030E040E024
:100C700050E02AC0B801A701022E04C076956795FE
:100C8000579547950A94D2F781E090E0A0E0B0E054
:100C900004C0880F991FAA1FBB1F2A95D2F701977E
:100CA000A109B1098E219F21A023B1230097A1059D
:100CB000B10521F081E090E0A0E0B0E09A01AB0145
:100CC000282B392B4A2B5B2BDA01C9018F779070C7
:100CD000A070B07080349105A105B10539F427FFEB
:100CE00009C0205C3F4F4F4F5F4F04C0215C3F4F16
:100CF0004F4F5F4FE0E0F0E02030A0E03A07A0E087
:100D00004A07A0E45A0710F0E1E0F0E079018A0117
:100D100027C06038710564F5FB01E158FF4FD80129
:100D2000C7018F779070A070B07080349105A105D5
:100D3000B10539F4E7FE0DC080E490E0A0E0B0E03A
:100D400004C08FE390E0A0E0B0E0E80EF91E0A1FB7
:100D50001B1F17FF05C016950795F794E79431966A
:100D600087E016950795F794E7948A95D1F705C023
:100D7000EE24FF248701EFEFF0E06E2F67956627E2
:100D80006795902F9F77D794DD24D7948E2F8695E3
:100D9000492F462B582F5D29B701CA011F910F918A
:100DA000FF90EF90DF900895FC01DB0140815181BD
:100DB0002281622F6F7770E0221F2227221F9381EA
:100DC000892F880F822B282F30E0991F9927991F90
:100DD00011969C93119721153105A9F541155105DF
:100DE0006105710511F482E037C082E89FEF139628
:100DF0009C938E9312979A01AB0167E0220F331FE9
:100E0000441F551F6A95D1F783E08C930DC0220FC4
:100E1000331F441F551F12968D919C911397019774
:100E200013969C938E931297203080E0380780E0D1
:100E3000480780E4580758F314962D933D934D933B
:100E40005C93179708952F3F310579F441155105AB
:100E50006105710519F484E08C93089564FF03C063
:100E600081E08C9312C01C9210C02F573040139613
:100E70003C932E93129783E08C9387E0440F551F89
:100E8000661F771F8A95D1F7706414964D935D9312
:100E90006D937C93179708951F93DC01FB019C9140
:100EA000923008F447C08081823008F443C0943007
:100EB00051F411961C91843099F58181682F70E06E
:100EC000611B71093FC0843021F0923031F48230CF
:100ED000B9F18181882389F12DC011961C91119758
:100EE0008230F1F081811817D9F412962D913C913E
:100EF0001397828193818217930794F028173907FB
:100F0000BCF014968D919D910D90BC91A02D2481E3
:100F1000358146815781281739074A075B0718F43E
:100F2000112341F00AC082179307A407B50740F4C4
:100F3000112319F061E070E005C06FEF7FEF02C090
:100F400060E070E0CB011F910895DF93CF9300D054
:100F500000D00F92CDB7DEB789836A834B838A8135
:100F6000883008F0D5C08981843008F0D1C08981EB
:100F7000282F30E03D832C838C819D818130910529
:100F800009F443C02C813D81223031052CF48C8141
:100F90009D81009771F0BCC02C813D8122303105CC
:100FA00009F45FC08C819D818330910509F485C06F
:100FB000AFC08B818130A1F4AAE3B0E0EAE3F0E0B6
:100FC0008081482F8A81282F30E081E090E0022E36
:100FD00002C0880F991F0A94E2F7842B8C9398C063
:100FE000AAE3B0E0EAE3F0E08081482F8A81282F6D
:100FF00030E081E090E0022E02C0880F991F0A9431
:10100000E2F7809584238C9383C08B818130A1F497
:10101000A7E3B0E0E7E3F0E08081482F8A81282F42
:1010200030E081E090E0022E02C0880F991F0A9400
:10103000E2F7842B8C936CC0A7E3B0E0E7E3F0E029
:101040008081482F8A81282F30E081E090E0022EB5
:1010500002C0880F991F0A94E2F7809584238C932D
:1010600057C08B818130A1F4A4E3B0E0E4E3F0E069
:101070008081482F8A81282F30E081E090E0022E85
:1010800002C0880F991F0A94E2F7842B8C9340C00A
:10109000A4E3B0E0E4E3F0E08081482F8A81282FC8
:1010A00030E081E090E0022E02C0880F991F0A9480
:1010B000E2F7809584238C932BC08B818130A1F43F
:1010C000A1E3B0E0E1E3F0E08081482F8A81282F9E
:1010D00030E081E090E0022E02C0880F991F0A9450
:1010E000E2F7842B8C9314C0A1E3B0E0E1E3F0E0DD
:1010F0008081482F8A81282F30E081E090E0022E05
:1011000002C0880F991F0A94E2F7809584238C937C
:101110000F900F900F900F900F90CF91DF91089547
:10112000DF93CF9300D000D00F92CDB7DEB7898385
:101130006A834B838A81883008F0E4C089818430D7
:1011400008F0E0C08981282F30E03D832C838C811A
:101150009D818130910509F447C02C813D81223069
:1011600031052CF48C819D81009771F0CBC02C81CE
:101170003D812230310509F467C08C819D81833027
:10118000910509F491C0BEC08B818823A9F4ABE31B
:10119000B0E0EBE3F0E08081482F8A81282F30E037
:1011A00081E090E0022E02C0880F991F0A94E2F7B6
:1011B000809584238C93A6C08B81813009F0A2C0D6
:1011C000ABE3B0E0EBE3F0E08081482F8A81282F89
:1011D00030E081E090E0022E02C0880F991F0A944F
:1011E000E2F7842B8C938EC08B818823A9F4A8E32B
:1011F000B0E0E8E3F0E08081482F8A81282F30E0DA
:1012000081E090E0022E02C0880F991F0A94E2F755
:10121000809584238C9376C08B81813009F072C0D5
:10122000A8E3B0E0E8E3F0E08081482F8A81282F2E
:1012300030E081E090E0022E02C0880F991F0A94EE
:10124000E2F7842B8C935EC08B818823A9F4A5E3FD
:10125000B0E0E5E3F0E08081482F8A81282F30E07C
:1012600081E090E0022E02C0880F991F0A94E2F7F5
:10127000809584238C9346C08B81813009F042C0D5
:10128000A5E3B0E0E5E3F0E08081482F8A81282FD4
:1012900030E081E090E0022E02C0880F991F0A948E
:1012A000E2F7842B8C932EC08B818823A9F4A2E3D0
:1012B000B0E0E2E3F0E08081482F8A81282F30E01F
:1012C00081E090E0022E02C0880F991F0A94E2F795
:1012D000809584238C9316C08B81813099F4A2E38E
:1012E000B0E0E2E3F0E08081482F8A81282F30E0EF
:1012F00081E090E0022E02C0880F991F0A94E2F765
:10130000842B8C930F900F900F900F900F90CF9194
:10131000DF910895DF93CF93CDB7DEB729970FB64E
:10132000F894DEBF0FBECDBF89836A838A8188307F
:1013300008F08DC08981843008F089C08981282F08
:1013400030E039872887488559854130510589F132
:10135000888599858230910534F428853985211551
:10136000310569F074C04885598542305105D9F17D
:10137000888599858330910509F44FC068C0E9E3F9
:10138000F0E08081282F30E08A81882F90E0A90149
:1013900002C0559547958A95E2F7CA018170907011
:1013A000882319F051E05E8301C01E828E818F83F5
:1013B0004FC0E6E3F0E08081282F30E08A81882F5B
:1013C00090E0A90102C0559547958A95E2F7CA01B8
:1013D00081709070882319F051E05D8301C01D82F7
:1013E0008D818F8335C0E3E3F0E08081282F30E0EA
:1013F0008A81882F90E0A90102C0559547958A956A
:10140000E2F7CA0181709070882319F051E05C8383
:1014100001C01C828C818F831BC0E0E3F0E08081DF
:10142000282F30E08A81882F90E0A90102C05595CD
:1014300047958A95E2F7CA0181709070882319F068
:1014400051E05B8301C01B828B818F8301C01F82AF
:101450008F8129960FB6F894DEBF0FBECDBFCF9116
:10146000DF910895DF93CF9300D000D0CDB7DEB7E2
:1014700089836A838981843090F58981282F30E0BF
:101480003C832B838B819C8181309105D1F02B8112
:101490003C81223031052CF48B819C81009761F0D6
:1014A0001EC02B813C812230310581F08B819C81D3
:1014B0008330910581F013C0EAE3F0E08A818083F4
:1014C0000EC0E7E3F0E08A81808309C0E4E3F0E046
:1014D0008A81808304C0E1E3F0E08A8180830F90F9
:1014E0000F900F900F90CF91DF910895DF93CF93DE
:1014F00000D000D0CDB7DEB789836A83898184307C
:1015000090F58981282F30E03C832B838B819C814F
:1015100081309105D1F02B813C81223031052CF4B2
:101520008B819C81009761F01EC02B813C81223011
:10153000310581F08B819C818330910581F013C04E
:10154000EBE3F0E08A8180830EC0E8E3F0E08A817B
:10155000808309C0E5E3F0E08A81808304C0E2E390
:10156000F0E08A8180830F900F900F900F90CF91C1
:10157000DF910895DF93CF9300D000D0CDB7DEB7D1
:1015800089838981843098F58981282F30E03C83D4
:101590002B838B819C8181309105D1F02B813C8103
:1015A000223031052CF48B819C81009761F01FC0A3
:1015B0002B813C812230310581F08B819C818330ED
:1015C000910581F014C0E9E3F0E090819A8310C0A6
:1015D000E6E3F0E020812A830BC0E3E3F0E0308112
:1015E0003A8306C0E0E3F0E080818A8301C01A827A
:1015F0008A810F900F900F900F90CF91DF910895F7
:10160000DF93CF93CDB7DEB760970FB6F894DEBF08
:101610000FBECDBF83E060E040E00E94A50783E0FD
:1016200061E040E00E94A50783E062E040E00E94A4
:10163000A50783E063E040E00E94A50783E064E043
:1016400040E00E94A50783E065E040E00E94A50716
:1016500083E066E040E00E94A50783E067E040E0A9
:101660000E94A5071F86ABC083E06F8541E00E9402
:10167000A50783E06F8540E00E949008188A22C089
:101680008889982F9C5F83E0692F0E948A098823AC
:10169000B1F48F85882F90E0880F991F880F991FCC
:1016A000982F8889890F8F5F0E94E40B60960FB690
:1016B000F894DEBF0FBECDBFCF91DF91089588892A
:1016C0008F5F888B88898430D8F283E06F8540E013
:1016D0000E94A50780E090E0A0EAB0E48B879C8799
:1016E000AD87BE876B857C858D859E8520E030E04B
:1016F0004AE753E40E941F02DC01CB018F839887E5
:10170000A987BA876F81788589859A8520E030E03E
:1017100040E85FE30E94550488232CF481E090E0C8
:101720009E838D833FC06F81788589859A8520E06F
:101730003FEF4FE757E40E94F50318164CF56B8511
:101740007C858D859E8520E030E040E251E40E945A
:101750001F02DC01CB01BC01CD010E944900DC016C
:10176000CB019E838D830FC089E190E09C838B83A6
:101770008B819C810197F1F79C838B838D819E8166
:1017800001979E838D838D819E81009769F714C098
:101790006F81788589859A850E944900DC01CB019B
:1017A0009E838D838D819E819A83898389819A818D
:1017B0000197F1F79A8389838F858F5F8F878F8554
:1017C000843008F451CF4ECFDF93CF9300D000D0B8
:1017D000CDB7DEB78A8319828A81282F30E03C8317
:1017E0002B838B819C818830910509F470C02B81FB
:1017F0003C81293031055CF58B819C8184309105D9
:1018000009F459C02B813C81253031059CF48B8132
:101810009C818230910509F448C02B813C812330A2
:1018200031050CF045C08B819C818130910509F414
:1018300039C067C02B813C812630310509F441C095
:101840008B819C81873091050CF03EC037C02B8185
:101850003C812C30310509F446C08B819C818D3050
:1018600091055CF42B813C812A303105B1F18B81EB
:101870009C818B309105A4F52DC02B813C812E30AD
:101880003105B9F18B819C818E3091057CF12B81E2
:101890003C812F30310579F18B819C81803191051C
:1018A00069F12FC087E089832EC088E089832BC02F
:1018B00089E0898328C085E2898325C084E0898303
:1018C00022C085E089831FC086E089831CC08AE22C
:1018D000898319C081E0898316C082E0898313C09F
:1018E00083E0898310C08DE289830DC08DE08983F8
:1018F0000AC0198208C08DE3898305C08BE2898301
:1019000002C08A81898389810F900F900F900F9078
:10191000CF91DF910895DF93CF93CDB7DEB72E97A8
:101920000FB6F894DEBF0FBECDBF82E060E041E0AD
:101930000E94A50782E061E041E00E94A50780E0E7
:1019400090E0A0EAB1E48B879C87AD87BE876B856A
:101950007C858D859E8520E030E04AE753E40E9437
:101960001F02DC01CB018F839887A987BA876F811B
:10197000788589859A8520E030E040E85FE30E9421
:10198000550488232CF481E090E09E838D833FC032
:101990006F81788589859A8520E03FEF4FE757E48E
:1019A0000E94F50318164CF56B857C858D859E8508
:1019B00020E030E040E251E40E941F02DC01CB0154
:1019C000BC01CD010E944900DC01CB019E838D83C7
:1019D0000FC089E190E09C838B838B819C81019770
:1019E000F1F79C838B838D819E8101979E838D83EC
:1019F0008D819E81009769F714C06F8178858985F4
:101A00009A850E944900DC01CB019E838D838D81E4
:101A10009E819A83898389819A810197F1F79A83BC
:101A2000898382E064E041E00E94A50782E065E0EE
:101A300041E00E94A50782E066E041E00E94A50720
:101A400082E067E041E00E94A50783E30E943D0D2C
:101A500082E30E943D0D88E20E943D0D8CE00E94D1
:101A60003D0D81E00E943D0D2E960FB6F894DEBF2D
:101A70000FBECDBFCF91DF9108950F931F93DF93DA
:101A8000CF93CDB7DEB7C356D0400FB6F894DEBFC4
:101A90000FBECDBFFE01ED59FF4F808382E060E0B5
:101AA00040E00E949008FE01E15AFF4F80E090E084
:101AB000A0E8BFE380839183A283B3838E01055A9C
:101AC0001F4FFE01E15AFF4F608171818281938136
:101AD00020E030E04AE753E40E941F02DC01CB0122
:101AE000F80180839183A283B383FE01E55AFF4FFF
:101AF000608171818281938120E030E040E85FE382
:101B00000E945504882344F4FE01E75AFF4F81E008
:101B100090E09183808364C0FE01E55AFF4F6081AD
:101B200071818281938120E03FEF4FE757E40E946B
:101B3000F50318160CF043C0FE01E15AFF4F608117
:101B400071818281938120E030E040E251E40E9483
:101B50001F02DC01CB018E01075A1F4FBC01CD01D2
:101B60000E944900DC01CB01F801918380831FC0F2
:101B7000FE01E95AFF4F89E190E091838083FE01E5
:101B8000E95AFF4F808191810197F1F7FE01E95AEF
:101B9000FF4F91838083DE01A75ABF4FFE01E75AB2
:101BA000FF4F80819181019711969C938E93FE0146
:101BB000E75AFF4F808191810097D1F627C08E01AF
:101BC000075A1F4FFE01E55AFF4F608171818281E4
:101BD00093810E944900DC01CB01F801918380834D
:101BE000DE01AB5ABF4FFE01E75AFF4F8081918162
:101BF0008D939C93FE01EB5AFF4F80819181019759
:101C0000F1F7FE01EB5AFF4F9183808382E061E0A0
:101C100041E00E949008FE01EF5AFF4F80E090E003
:101C2000A0E8BFE380839183A283B3838E01035B2B
:101C30001F4FFE01EF5AFF4F6081718182819381B6
:101C400020E030E04AE753E40E941F02DC01CB01B0
:101C5000F80180839183A283B383FE01E35BFF4F8E
:101C6000608171818281938120E030E040E85FE310
:101C70000E945504882344F4FE01E55BFF4F81E098
:101C800090E09183808364C0FE01E35BFF4F60813D
:101C900071818281938120E03FEF4FE757E40E94FA
:101CA000F50318160CF043C0FE01EF5AFF4F608198
:101CB00071818281938120E030E040E251E40E9412
:101CC0001F02DC01CB018E01055B1F4FBC01CD0162
:101CD0000E944900DC01CB01F801918380831FC081
:101CE000FE01E75BFF4F89E190E091838083FE0175
:101CF000E75BFF4F808191810197F1F7FE01E75B80
:101D0000FF4F91838083DE01A55BBF4FFE01E55B42
:101D1000FF4F80819181019711969C938E93FE01D4
:101D2000E55BFF4F808191810097D1F627C08E013E
:101D3000055B1F4FFE01E35BFF4F60817181828174
:101D400093810E944900DC01CB01F80191838083DB
:101D5000DE01A95BBF4FFE01E55BFF4F80819181F2
:101D60008D939C93FE01E95BFF4F808191810197E8
:101D7000F1F7FE01E95BFF4F91838083FE01ED598E
:101D8000FF4F8081882F90E08071907095958795A6
:101D9000959587959595879595958795982F82E048
:101DA00064E0492F0E949008FE01ED59FF4F8081A9
:101DB000882F90E08072907095958795959587957E
:101DC000959587959595879595958795982F82E018
:101DD00065E0492F0E949008FE01ED59FF4F808178
:101DE000882F90E080749070082E892F000C881F37
:101DF000990B000C881F991F982F82E066E0492FED
:101E00000E949008FE01ED59FF4F8081982F991F85
:101E10009927991F82E067E0492F0E949008FE01F0
:101E2000ED5BFF4F80E090E0A0E8BFE3808391830B
:101E3000A283B3838E01015C1F4FFE01ED5BFF4F58
:101E4000608171818281938120E030E04AE753E430
:101E50000E941F02DC01CB01F80180839183A283E1
:101E6000B383FE01FF96608171818281938120E0BE
:101E700030E040E85FE30E94550488232CF481E0C1
:101E800090E09EAF8DAF46C0FE01FF9660817181EC
:101E90008281938120E03FEF4FE757E40E94F503F2
:101EA000181664F5FE01ED5BFF4F60817181828140
:101EB000938120E030E040E251E40E941F02DC0107
:101EC000CB01BC01CD010E944900DC01CB019EAFDA
:101ED0008DAF0FC089E190E09CAF8BAF8BAD9CAD17
:101EE0000197F1F79CAF8BAF8DAD9EAD01979EAF83
:101EF0008DAF8DAD9EAD009769F716C0FE01FF96C0
:101F000060817181828193810E944900DC01CB0153
:101F10009EAF8DAF8DAD9EAD9AAF89AF89AD9AADB5
:101F20000197F1F79AAF89AF82E061E040E00E944B
:101F3000900880E090E0A0E8BFE38DAB9EABAFAB34
:101F4000B8AF6DA97EA98FA998AD20E030E04AE72F
:101F500053E40E941F02DC01CB0189AB9AABABAB0F
:101F6000BCAB69A97AA98BA99CA920E030E040E824
:101F70005FE30E94550488232CF481E090E098AB45
:101F80008FA73FC069A97AA98BA99CA920E03FEF40
:101F90004FE757E40E94F50318164CF56DA97EA98A
:101FA0008FA998AD20E030E040E251E40E941F028A
:101FB000DC01CB01BC01CD010E944900DC01CB0159
:101FC00098AB8FA70FC089E190E09EA78DA78DA544
:101FD0009EA50197F1F79EA78DA78FA598A90197B8
:101FE00098AB8FA78FA598A9009769F714C069A926
:101FF0007AA98BA99CA90E944900DC01CB0198AB6E
:102000008FA78FA598A99CA78BA78BA59CA50197A7
:10201000F1F79CA78BA782E061E041E00E94900865
:1020200080E090E0A0E8BFE38FA398A7A9A7BAA794
:102030006FA178A589A59AA520E030E04AE753E48E
:102040000E941F02DC01CB018BA39CA3ADA3BEA306
:102050006BA17CA18DA19EA120E030E040E85FE370
:102060000E94550488232CF481E090E09AA389A370
:102070003FC06BA17CA18DA19EA120E03FEF4FE767
:1020800057E40E94F50318164CF56FA178A589A5B1
:102090009AA520E030E040E251E40E941F02DC01FA
:1020A000CB01BC01CD010E944900DC01CB019AA308
:1020B00089A30FC089E190E098A38F8F8F8D98A19D
:1020C0000197F1F798A38F8F89A19AA101979AA3FD
:1020D00089A389A19AA1009769F714C06BA17CA17B
:1020E0008DA19EA10E944900DC01CB019AA389A386
:1020F00089A19AA19E8F8D8F8D8D9E8D0197F1F76D
:102100009E8F8D8FFE01ED59FF4F8081982F91702A
:1021100082E064E0492F0E949008FE01ED59FF4FD4
:102120008081882F90E08270907095958795982F88
:1021300082E065E0492F0E949008FE01ED59FF4FB3
:102140008081882F90E08470907095958795959503
:102150008795982F82E066E0492F0E949008FE0143
:10216000ED59FF4F8081882F90E088709070959591
:1021700087959595879595958795982F82E067E047
:10218000492F0E94900880E090E0A0E8BFE3898F8B
:102190009A8FAB8FBC8F698D7A8D8B8D9C8D20E053
:1021A00030E04AE753E40E941F02DC01CB018D8B33
:1021B0009E8BAF8BB88F6D897E898F89988D20E03B
:1021C00030E040E85FE30E94550488232CF481E06E
:1021D00090E09C8B8B8B3FC06D897E898F89988D19
:1021E00020E03FEF4FE757E40E94F50318164CF547
:1021F000698D7A8D8B8D9C8D20E030E040E251E43A
:102200000E941F02DC01CB01BC01CD010E944900EC
:10221000DC01CB019C8B8B8B0FC089E190E09A8B0A
:10222000898B89899A890197F1F79A8B898B8B8998
:102230009C8901979C8B8B8B8B899C89009769F774
:1022400014C06D897E898F89988D0E944900DC01B8
:10225000CB019C8B8B8B8B899C89988B8F878F85EF
:1022600098890197F1F7988B8F8782E061E040E0D1
:102270000E94900880E090E0A0E8BFE38B879C87F5
:10228000AD87BE876B857C858D859E8520E030E09F
:102290004AE753E40E941F02DC01CB018F83988739
:1022A000A987BA876F81788589859A8520E030E093
:1022B00040E85FE30E94550488232CF481E090E01D
:1022C0009E838D833FC06F81788589859A8520E0C4
:1022D0003FEF4FE757E40E94F50318164CF56B8566
:1022E0007C858D859E8520E030E040E251E40E94AF
:1022F0001F02DC01CB01BC01CD010E944900DC01C1
:10230000CB019E838D830FC089E190E09C838B83FA
:102310008B819C810197F1F79C838B838D819E81BA
:1023200001979E838D838D819E81009769F714C0EC
:102330006F81788589859A850E944900DC01CB01EF
:102340009E838D838D819E819A83898389819A81E1
:102350000197F1F79A838983CD59DF4F0FB6F8942F
:10236000DEBF0FBECDBFCF91DF911F910F910895BA
:102370000F931F93DF93CF93CDB7DEB7C356D040F3
:102380000FB6F894DEBF0FBECDBFFE01ED59FF4F73
:10239000808382E060E041E00E949008FE01E15A03
:1023A000FF4F80E090E0A0E8BFE380839183A283A9
:1023B000B3838E01055A1F4FFE01E15AFF4F608122
:1023C00071818281938120E030E04AE753E40E94EA
:1023D0001F02DC01CB01F80180839183A283B383C8
:1023E000FE01E55AFF4F608171818281938120E077
:1023F00030E040E85FE30E945504882344F4FE0186
:10240000E75AFF4F81E090E09183808364C0FE0132
:10241000E55AFF4F608171818281938120E03FEF17
:102420004FE757E40E94F50318160CF043C0FE0175
:10243000E15AFF4F608171818281938120E030E019
:1024400040E251E40E941F02DC01CB018E01075AD9
:102450001F4FBC01CD010E944900DC01CB01F801F6
:10246000918380831FC0FE01E95AFF4F89E190E00C
:1024700091838083FE01E95AFF4F8081918101970A
:10248000F1F7FE01E95AFF4F91838083DE01A75ADD
:10249000BF4FFE01E75AFF4F80819181019711964E
:1024A0009C938E93FE01E75AFF4F808191810097A4
:1024B000D1F627C08E01075A1F4FFE01E55AFF4F84
:1024C00060817181828193810E944900DC01CB018E
:1024D000F80191838083DE01AB5ABF4FFE01E75ABA
:1024E000FF4F808191818D939C93FE01EB5AFF4FAA
:1024F000808191810197F1F7FE01EB5AFF4F9183A3
:10250000808382E061E041E00E949008FE01EF5A82
:10251000FF4F80E090E0A0E8BFE380839183A28337
:10252000B3838E01035B1F4FFE01EF5AFF4F6081A3
:1025300071818281938120E030E04AE753E40E9478
:102540001F02DC01CB01F80180839183A283B38356
:10255000FE01E35BFF4F608171818281938120E006
:1025600030E040E85FE30E945504882344F4FE0114
:10257000E55BFF4F81E090E09183808364C0FE01C2
:10258000E35BFF4F608171818281938120E03FEFA7
:102590004FE757E40E94F50318160CF043C0FE0104
:1025A000EF5AFF4F608171818281938120E030E09A
:1025B00040E251E40E941F02DC01CB018E01055B69
:1025C0001F4FBC01CD010E944900DC01CB01F80185
:1025D000918380831FC0FE01E75BFF4F89E190E09C
:1025E00091838083FE01E75BFF4F8081918101979A
:1025F000F1F7FE01E75BFF4F91838083DE01A55B6E
:10260000BF4FFE01E55BFF4F8081918101971196DD
:102610009C938E93FE01E55BFF4F80819181009733
:10262000D1F627C08E01055B1F4FFE01E35BFF4F14
:1026300060817181828193810E944900DC01CB011C
:10264000F80191838083DE01A95BBF4FFE01E55B4A
:10265000FF4F808191818D939C93FE01E95BFF4F39
:10266000808191810197F1F7FE01E95BFF4F918332
:102670008083FE01ED59FF4F8081882F90E08071AB
:10268000907095958795959587959595879595954E
:102690008795982F82E064E0492F0E949008FE0100
:1026A000ED59FF4F8081882F90E080729070959552
:1026B0008795959587959595879595958795959502
:1026C0008795982F82E065E0492F0E949008FE01CF
:1026D000ED59FF4F8081882F90E080749070082E14
:1026E000892F000C881F990B000C881F991F982FA9
:1026F00082E066E0492F0E949008FE01ED59FF4FED
:102700008081982F991F9927991F82E067E0492FB0
:102710000E949008FE01ED5BFF4F80E090E0A0E892
:10272000BFE380839183A283B3838E01015C1F4F3B
:10273000FE01ED5BFF4F608171818281938120E01A
:1027400030E04AE753E40E941F02DC01CB01F801AC
:1027500080839183A283B383FE01FF9660817181A0
:102760008281938120E030E040E85FE30E945504DD
:1027700088232CF481E090E09EAF8DAF46C0FE012F
:10278000FF96608171818281938120E03FEF4FE766
:1027900057E40E94F503181664F5FE01ED5BFF4F48
:1027A000608171818281938120E030E040E251E4D8
:1027B0000E941F02DC01CB01BC01CD010E94490037
:1027C000DC01CB019EAF8DAF0FC089E190E09CAFE3
:1027D0008BAF8BAD9CAD0197F1F79CAF8BAF8DADFF
:1027E0009EAD01979EAF8DAF8DAD9EAD009769F701
:1027F00016C0FE01FF9660817181828193810E94E3
:102800004900DC01CB019EAF8DAF8DAD9EAD9AAF7F
:1028100089AF89AD9AAD0197F1F79AAF89AF82E0A0
:1028200061E040E00E94900880E090E0A0E8BFE313
:102830008DAB9EABAFABB8AF6DA97EA98FA998AD9C
:1028400020E030E04AE753E40E941F02DC01CB01A4
:1028500089AB9AABABABBCAB69A97AA98BA99CA994
:1028600020E030E040E85FE30E94550488232CF428
:1028700081E090E098AB8FA73FC069A97AA98BA9A6
:102880009CA920E03FEF4FE757E40E94F50318169C
:102890004CF56DA97EA98FA998AD20E030E040E20B
:1028A00051E40E941F02DC01CB01BC01CD010E945A
:1028B0004900DC01CB0198AB8FA70FC089E190E004
:1028C0009EA78DA78DA59EA50197F1F79EA78DA721
:1028D0008FA598A9019798AB8FA78FA598A9009766
:1028E00069F714C069A97AA98BA99CA90E9449001B
:1028F000DC01CB0198AB8FA78FA598A99CA78BA7CC
:102900008BA59CA50197F1F79CA78BA782E061E0BE
:1029100041E00E94900880E090E0A0E8BFE38FA330
:1029200098A7A9A7BAA76FA178A589A59AA520E01D
:1029300030E04AE753E40E941F02DC01CB018BA385
:102940009CA3ADA3BEA36BA17CA18DA19EA120E001
:1029500030E040E85FE30E94550488232CF481E0D6
:1029600090E09AA389A33FC06BA17CA18DA19EA1F9
:1029700020E03FEF4FE757E40E94F50318164CF5AF
:102980006FA178A589A59AA520E030E040E251E446
:102990000E941F02DC01CB01BC01CD010E94490055
:1029A000DC01CB019AA389A30FC089E190E098A331
:1029B0008F8F8F8D98A10197F1F798A38F8F89A1A1
:1029C0009AA101979AA389A389A19AA1009769F76F
:1029D00014C06BA17CA18DA19EA10E944900DC01C5
:1029E000CB019AA389A389A19AA19E8F8D8F8D8DEA
:1029F0009E8D0197F1F79E8F8D8FFE01ED59FF4F50
:102A00008081982F917082E064E0492F0E949008A5
:102A1000FE01ED59FF4F8081882F90E08270907009
:102A200095958795982F82E065E0492F0E94900840
:102A3000FE01ED59FF4F8081882F90E084709070E7
:102A40009595879595958795982F82E066E0492F13
:102A50000E949008FE01ED59FF4F8081882F90E081
:102A6000887090709595879595958795959587959C
:102A7000982F82E067E0492F0E94900880E090E064
:102A8000A0E8BFE3898F9A8FAB8FBC8F698D7A8D59
:102A90008B8D9C8D20E030E04AE753E40E941F02BA
:102AA000DC01CB018D8B9E8BAF8BB88F6D897E89BE
:102AB0008F89988D20E030E040E85FE30E94550464
:102AC00088232CF481E090E09C8B8B8B3FC06D8938
:102AD0007E898F89988D20E03FEF4FE757E40E9471
:102AE000F50318164CF5698D7A8D8B8D9C8D20E041
:102AF00030E040E251E40E941F02DC01CB01BC0146
:102B0000CD010E944900DC01CB019C8B8B8B0FC057
:102B100089E190E09A8B898B89899A890197F1F7ED
:102B20009A8B898B8B899C8901979C8B8B8B8B894A
:102B30009C89009769F714C06D897E898F89988D6B
:102B40000E944900DC01CB019C8B8B8B8B899C897B
:102B5000988B8F878F8598890197F1F7988B8F874E
:102B600082E061E040E00E94900880E090E0A0E810
:102B7000BFE38B879C87AD87BE876B857C858D8502
:102B80009E8520E030E04AE753E40E941F02DC010A
:102B9000CB018F839887A987BA876F8178858985CC
:102BA0009A8520E030E040E85FE30E9455048823E6
:102BB0002CF481E090E09E838D833FC06F81788507
:102BC00089859A8520E03FEF4FE757E40E94F5039F
:102BD00018164CF56B857C858D859E8520E030E050
:102BE00040E251E40E941F02DC01CB01BC01CD0197
:102BF0000E944900DC01CB019E838D830FC089E1D7
:102C000090E09C838B838B819C810197F1F79C835F
:102C10008B838D819E8101979E838D838D819E8183
:102C2000009769F714C06F81788589859A850E941D
:102C30004900DC01CB019E838D838D819E819A8327
:102C4000898389819A810197F1F79A838983CD5984
:102C5000DF4F0FB6F894DEBF0FBECDBFCF91DF912F
:102C60001F910F910895DF93CF9300D00F92CDB7AE
:102C7000DEB79B838A8319820EC08981282F30E0BA
:102C80008A819B81FC01E20FF31F80810E94B811B1
:102C900089818F5F89838981282F30E08A819B8198
:102CA000FC01E20FF31F8081882339F70F900F900A
:102CB0000F90CF91DF910895DF93CF9300D000D094
:102CC0000F92CDB7DEB78A836B838A81282F30E0DD
:102CD0003D832C838C819D8181309105C1F02C81B5
:102CE0003D81223031052CF48C819D81009761F06B
:102CF00019C02C813D812230310569F08C819D8184
:102D00008330910561F00EC08B8189830BC08B816C
:102D1000805C898307C08B81805F898303C08B813E
:102D2000805B8983898180680E943D0D0F900F90A0
:102D30000F900F900F90CF91DF910895DF93CF9375
:102D400000D000D0CDB7DEB789836A835C834B8324
:102D500089816A810E945C168B819C810E94331656
:102D60000F900F900F900F90CF91DF910895DF9308
:102D7000CF93CDB7DEB762970FB6F894DEBF0FBE24
:102D8000CDBF9A8B898B89899A899E012F5F3F4F8E
:102D9000B9014AE050E00E945A1CCE0101960E94FF
:102DA000331662960FB6F894DEBF0FBECDBFCF913B
:102DB000DF910895DF93CF93CDB7DEB781E00E9416
:102DC0003D0DCF91DF910895DF93CF93CDB7DEB75F
:102DD00062970FB6F894DEBF0FBECDBF998B888B7C
:102DE0006A8B20E630E082E060E0A9010E949E1636
:102DF00082E060E00E945C161F861FC08F85882FCE
:102E000090E09C01220F331F220F331F888999897C
:102E1000FC01E20FF31F80819181A281B381BC018B
:102E2000CD010E94E304DC01CB010E94B7168CE2C5
:102E30000E94B8118F858F5F8F879F858A89981729
:102E4000E8F280E090E8ABEBB4E48B879C87AD8739
:102E5000BE876B857C858D859E8520E030E04AE7C6
:102E600053E40E941F02DC01CB018F839887A9875E
:102E7000BA876F81788589859A8520E030E040E8BF
:102E80005FE30E94550488232CF481E090E09E8348
:102E90008D833FC06F81788589859A8520E03FEFDB
:102EA0004FE757E40E94F50318164CF56B857C85B7
:102EB0008D859E8520E030E040E251E40E941F02B3
:102EC000DC01CB01BC01CD010E944900DC01CB013A
:102ED0009E838D830FC089E190E09C838B838B81DF
:102EE0009C810197F1F79C838B838D819E81019753
:102EF0009E838D838D819E81009769F714C06F81B9
:102F0000788589859A850E944900DC01CB019E83E2
:102F10008D838D819E819A83898389819A8101978E
:102F2000F1F79A83898362960FB6F894DEBF0FBEDD
:102F3000CDBFCF91DF910895DF93CF93CDB7DEB7AB
:102F400028970FB6F894DEBF0FBECDBF9F838E8348
:102F5000688780E090E0A0E0B0E08A839B83AC8348
:102F6000BD83198234C06A817B818C819D8120E080
:102F700030E040E251E40E941F02DC01CB018A8371
:102F80009B83AC83BD838981282F30E08E819F8114
:102F9000FC01E20FF31F8081882F90E0AA2797FDA4
:102FA000A095BA2FBC01CD010E9485049B01AC0104
:102FB0006A817B818C819D810E94F201DC01CB01C1
:102FC0008A839B83AC83BD8389818F5F8983998149
:102FD0008885981740F28A819B81AC81BD81BC01B4
:102FE000CD0128960FB6F894DEBF0FBECDBFCF91AE
:102FF000DF9108950F93DF93CF93CDB7DEB72F976F
:103000000FB6F894DEBF0FBECDBF69837A838B8382
:103010009C832D833E834F83588709878985282F7A
:1030200030E03F872E878E859F858A329105C9F1D2
:10303000AE85BF85AB32B1053CF42E853F85253288
:10304000310509F43FC04FC08E859F858B329105B5
:1030500031F0AE85BF85AD32B10591F044C06981D4
:103060007A818B819C812D813E814F8158850E9480
:10307000F201DC01CB018A879B87AC87BD873BC00F
:1030800069817A818B819C812D813E814F81588518
:103090000E94C101DC01CB018A879B87AC87BD8779
:1030A0002AC069817A818B819C812D813E814F81EB
:1030B00058850E941F02DC01CB018A879B87AC8761
:1030C000BD8719C069817A818B819C812D813E8168
:1030D0004F8158850E941903DC01CB018A879B87A9
:1030E000AC87BD8708C080E090E0A0E0B0E08A87B0
:1030F0009B87AC87BD878A859B85AC85BD85BC01D8
:10310000CD012F960FB6F894DEBF0FBECDBFCF9185
:10311000DF910F910895DF93CF93CDB7DEB7109273
:10312000980110929801109299010E94DA1681E795
:1031300090E00E94331681E060E00E945C16CF911F
:10314000DF910895DF93CF930F92CDB7DEB78983D8
:10315000809198018031C8F489818A3030F4898166
:10316000882F90E00E94B71603C089810E94B81191
:1031700020919801822F90E0FC01E857FE4F898151
:103180008083822F8F5F809398010F90CF91DF9182
:1031900008958F929F92AF92BF92CF92DF92EF925B
:1031A000FF920F931F93DF93CF93CDB7DEB7C55533
:1031B000D0400FB6F894DEBF0FBECDBF80E4FE0155
:1031C0003696DF01982F1D929A95E9F71C82CE0161
:1031D0008A5B9F4F20E1FC01DF01822F1D928A95BF
:1031E000E9F71B821D828FC08D81882F90E0FC0142
:1031F000E857FE4F80818A3008F03EC08B81282F2F
:1032000030E08D81882F90E0FC01E857FE4F40812F
:10321000CE018A5B9F4FFC01E20FF31F40838B813D
:103220008F5F8B838D81282F30E080919801882FCC
:1032300090E001972817390709F062C08C81082FA8
:1032400010E0CE018A5B9F4F6B810E949C17AB01FF
:10325000BC019801220F331F220F331FCE010196AC
:10326000820F931FFC0135964083518362837383E1
:103270008C818F5F8C8344C08C81082F10E0CE013D
:103280008A5B9F4F6B810E949C17AB01BC01980128
:10329000220F331F220F331FCE010196820F931F7F
:1032A000FC01359640835183628373838C818F5FE9
:1032B0008C838C81082F10E08D81882F90E0FC0199
:1032C000E857FE4F8081882F90E0A0E0B0E0BC017D
:1032D000CD010E943705AB01BC019801220F331FBD
:1032E000220F331FCE010196820F931FFC013596EA
:1032F00040835183628373838C818F5F8C831B82B5
:103300008D818F5F8D83909198018D81891708F44D
:103310006BCFCE0106966C810E94E4161D82CDC053
:103320008D81882F90E09C01220F331F220F331FC5
:10333000CE010196820F931FFC0135968081918109
:10334000A281B381BC01CD0120E030E048E252E42B
:103350000E94C5038823E9F08D81882F90E09C01AD
:10336000220F331F220F331FCE010196820F931FAE
:10337000FC01359680819181A281B381BC01CD0190
:1033800020E030E044E152E40E94C503882309F0C4
:1033900091C08D81882F90E04C010894810891089C
:1033A0008D81882F90E001979C01220F331F220FFF
:1033B000331FCE010196820F931FFC013596A0802A
:1033C000B180C280D3808D81882F90E001969C01CE
:1033D000220F331F220F331FCE010196820F931F3E
:1033E000FC013596E080F180028113818D81882F68
:1033F00090E09C01220F331F220F331FCE01019654
:10340000820F931FFC01359680819181A281B38147
:10341000BC01CD010E944900DC01CB01E82FC601AF
:10342000B501A80197010E2F0E94FA17AB01BC014C
:103430009401220F331F220F331FCE010196820FFA
:10344000931FFC01359640835183628373838D8182
:103450008A8328C08A81A82FB0E08A81882F90E0D3
:1034600002969C01220F331F220F331FCE010196BB
:10347000820F931FFC0135964081518162817381D7
:103480009D01220F331F220F331FCE010196820FA1
:10349000931FFC01359640835183628373838A8135
:1034A0008F5F8A839A818C819817A0F28C818250D9
:1034B0008C831D828D818F5F8D839D818C81981778
:1034C00008F42ECFCE0106966C810E94E4161D8270
:1034D000CDC08D81882F90E09C01220F331F220FD9
:1034E000331FCE010196820F931FFC013596808118
:1034F0009181A281B381BC01CD0120E030E04CE29A
:1035000052E40E94C5038823E9F08D81882F90E062
:103510009C01220F331F220F331FCE010196820F11
:10352000931FFC01359680819181A281B381BC01FA
:10353000CD0120E030E044E352E40E94C50388233B
:1035400009F091C08D81882F90E04C01089481088A
:1035500091088D81882F90E001979C01220F331FE5
:10356000220F331FCE010196820F931FFC01359667
:10357000A080B180C280D3808D81882F90E0019699
:103580009C01220F331F220F331FCE010196820FA1
:10359000931FFC013596E080F180028113818D81BB
:1035A000882F90E09C01220F331F220F331FCE0182
:1035B0000196820F931FFC01359680819181A28133
:1035C000B381BC01CD010E944900DC01CB01E82F91
:1035D000C601B501A80197010E2F0E94FA17AB0191
:1035E000BC019401220F331F220F331FCE0101961D
:1035F000820F931FFC01359640835183628373834E
:103600008D81898328C08981A82FB0E08981882F86
:1036100090E002969C01220F331F220F331FCE0130
:103620000196820F931FFC01359640815181628182
:1036300073819D01220F331F220F331FCE0101968C
:10364000820F931FFC0135964083518362837383FD
:1036500089818F5F898399818C819817A0F28C81F1
:1036600082508C831D828D818F5F8D839D818C81A3
:10367000981708F42ECFCE0106966C810E94E416AE
:103680008E819F81A885B98580939A0190939B0133
:10369000A0939C01B0939D012DE730E083E060E0B2
:1036A000A9010E949E1680919A0190919B01A09180
:1036B0009C01B0919D01BC01CD010E94E304DC019D
:1036C000CB010E94B71681E080939901CB5ADF4F5E
:1036D0000FB6F894DEBF0FBECDBFCF91DF911F9123
:1036E0000F91FF90EF90DF90CF90BF90AF909F90A1
:1036F0008F900895DF93CF93CDB7DEB761970FB664
:10370000F894DEBF0FBECDBF0E948B0C81E790E026
:103710000E94331681E060E00E945C160E94000B5C
:103720008F8780919901882311F00E948B188F85D3
:10373000282F30E0398B288B888999898D30910525
:1037400031F0288939892D33310521F006C00E94D6
:103750008B1806C00E94C91803C08F850E94A2184A
:1037600080E090E0A8E4B3E48B879C87AD87BE87B8
:103770006B857C858D859E8520E030E04AE753E4AB
:103780000E941F02DC01CB018F839887A987BA872B
:103790006F81788589859A8520E030E040E85FE395
:1037A0000E94550488232CF481E090E09E838D8351
:1037B0003FC06F81788589859A8520E03FEF4FE78C
:1037C00057E40E94F50318164CF56B857C858D85B2
:1037D0009E8520E030E040E251E40E941F02DC01BF
:1037E000CB01BC01CD010E944900DC01CB019E83CD
:1037F0008D830FC089E190E09C838B838B819C81BA
:103800000197F1F79C838B838D819E8101979E8325
:103810008D838D819E81009769F780CF6F81788538
:1038200089859A850E944900DC01CB019E838D83A6
:103830008D819E819A83898389819A810197F1F78D
:103840009A8389836BCF2F923F924F925F926F92B0
:103850007F928F929F92AF92BF92CF92DF92EF9220
:10386000FF920F931F93CF93DF93CDB7DEB7CA1BA1
:10387000DB0B0FB6F894DEBF0FBECDBF09942A88CC
:10388000398848885F846E847D848C849B84AA8474
:10389000B984C884DF80EE80FD800C811B81AA8101
:1038A000B981CE0FD11D0FB6F894DEBF0FBECDBFCC
:1038B000ED010895FB019F01E8944230C4F04532C8
:1038C000B4F44A3029F497FB1EF4909581959F4FEC
:1038D000642F77270E948B1C805D8A330CF0895DF2
:1038E0008193CB010097A1F716F45DE2519310820A
:1038F000C9010C947B1CDC01FC01672F71917723BB
:10390000E1F7329704C07C916D9370836291AE179A
:10391000BF07C8F30895AA1BBB1B51E107C0AA1F2C
:10392000BB1FA617B70710F0A61BB70B881F991F60
:103930005A95A9F780959095BC01CD010895F8940A
:02394000FFCFB7
:103942002020202020202020202020202020202075
:103952000043414C43554C41544F523A003D000004
:103962000000000000000000010202030303030440
:1039720004040404040404050505050505050505FC
:1039820005050505050505060606060606060606DC
:1039920006060606060606060606060606060606C5
:1039A20006060606060606070707070707070707AC
:1039B2000707070707070707070707070707070795
:1039C2000707070707070707070707070707070785
:1039D2000707070707070707070707070707070775
:1039E200070707070707070808080808080808085C
:1039F2000808080808080808080808080808080845
:103A02000808080808080808080808080808080834
:103A12000808080808080808080808080808080824
:103A22000808080808080808080808080808080814
:103A32000808080808080808080808080808080804
:103A420008080808080808080808080808080808F4
:103A520008080808080808080808080808080808E4
:083A6200080808080808080024
:00000001FF
